{
  "_format": "hh-sol-artifact-1",
  "contractName": "Web3Site",
  "sourceName": "contracts/Web3Site.sol",
  "abi": [
    {
      "inputs": [
        {
          "internalType": "address",
          "name": "_dpr",
          "type": "address"
        },
        {
          "components": [
            {
              "internalType": "uint16",
              "name": "methods",
              "type": "uint16"
            },
            {
              "components": [
                {
                  "internalType": "uint256",
                  "name": "maxAge",
                  "type": "uint256"
                },
                {
                  "internalType": "bool",
                  "name": "noStore",
                  "type": "bool"
                },
                {
                  "internalType": "bool",
                  "name": "noCache",
                  "type": "bool"
                },
                {
                  "internalType": "bool",
                  "name": "immutableFlag",
                  "type": "bool"
                },
                {
                  "internalType": "bool",
                  "name": "publicFlag",
                  "type": "bool"
                }
              ],
              "internalType": "struct CacheControl",
              "name": "cache",
              "type": "tuple"
            },
            {
              "components": [
                {
                  "internalType": "uint16",
                  "name": "code",
                  "type": "uint16"
                },
                {
                  "internalType": "string",
                  "name": "location",
                  "type": "string"
                }
              ],
              "internalType": "struct Redirect",
              "name": "redirect",
              "type": "tuple"
            },
            {
              "internalType": "bytes32",
              "name": "resourceAdmin",
              "type": "bytes32"
            }
          ],
          "internalType": "struct HeaderInfo",
          "name": "_defaultHeader",
          "type": "tuple"
        },
        {
          "internalType": "address",
          "name": "_owner",
          "type": "address"
        }
      ],
      "stateMutability": "nonpayable",
      "type": "constructor"
    },
    {
      "inputs": [],
      "name": "AccessControlBadConfirmation",
      "type": "error"
    },
    {
      "inputs": [
        {
          "internalType": "address",
          "name": "account",
          "type": "address"
        },
        {
          "internalType": "bytes32",
          "name": "neededRole",
          "type": "bytes32"
        }
      ],
      "name": "AccessControlUnauthorizedAccount",
      "type": "error"
    },
    {
      "inputs": [
        {
          "internalType": "address",
          "name": "account",
          "type": "address"
        },
        {
          "internalType": "bytes32",
          "name": "role",
          "type": "bytes32"
        }
      ],
      "name": "Forbidden",
      "type": "error"
    },
    {
      "inputs": [
        {
          "internalType": "bytes32",
          "name": "role",
          "type": "bytes32"
        }
      ],
      "name": "InvalidRole",
      "type": "error"
    },
    {
      "inputs": [
        {
          "internalType": "string",
          "name": "path",
          "type": "string"
        }
      ],
      "name": "ResourceImmutable",
      "type": "error"
    },
    {
      "anonymous": false,
      "inputs": [
        {
          "indexed": true,
          "internalType": "address",
          "name": "publisher",
          "type": "address"
        },
        {
          "components": [
            {
              "components": [
                {
                  "components": [
                    {
                      "internalType": "string",
                      "name": "protocol",
                      "type": "string"
                    },
                    {
                      "internalType": "uint16",
                      "name": "code",
                      "type": "uint16"
                    }
                  ],
                  "internalType": "struct ResponseLine",
                  "name": "responseLine",
                  "type": "tuple"
                },
                {
                  "components": [
                    {
                      "internalType": "uint16",
                      "name": "methods",
                      "type": "uint16"
                    },
                    {
                      "components": [
                        {
                          "internalType": "uint256",
                          "name": "maxAge",
                          "type": "uint256"
                        },
                        {
                          "internalType": "bool",
                          "name": "noStore",
                          "type": "bool"
                        },
                        {
                          "internalType": "bool",
                          "name": "noCache",
                          "type": "bool"
                        },
                        {
                          "internalType": "bool",
                          "name": "immutableFlag",
                          "type": "bool"
                        },
                        {
                          "internalType": "bool",
                          "name": "publicFlag",
                          "type": "bool"
                        }
                      ],
                      "internalType": "struct CacheControl",
                      "name": "cache",
                      "type": "tuple"
                    },
                    {
                      "components": [
                        {
                          "internalType": "uint16",
                          "name": "code",
                          "type": "uint16"
                        },
                        {
                          "internalType": "string",
                          "name": "location",
                          "type": "string"
                        }
                      ],
                      "internalType": "struct Redirect",
                      "name": "redirect",
                      "type": "tuple"
                    },
                    {
                      "internalType": "bytes32",
                      "name": "resourceAdmin",
                      "type": "bytes32"
                    }
                  ],
                  "internalType": "struct HeaderInfo",
                  "name": "headerInfo",
                  "type": "tuple"
                },
                {
                  "components": [
                    {
                      "internalType": "bytes2",
                      "name": "mimeType",
                      "type": "bytes2"
                    },
                    {
                      "internalType": "bytes2",
                      "name": "charset",
                      "type": "bytes2"
                    },
                    {
                      "internalType": "bytes2",
                      "name": "encoding",
                      "type": "bytes2"
                    },
                    {
                      "internalType": "bytes2",
                      "name": "language",
                      "type": "bytes2"
                    },
                    {
                      "internalType": "uint256",
                      "name": "size",
                      "type": "uint256"
                    },
                    {
                      "internalType": "uint256",
                      "name": "version",
                      "type": "uint256"
                    },
                    {
                      "internalType": "uint256",
                      "name": "lastModified",
                      "type": "uint256"
                    },
                    {
                      "internalType": "bytes32",
                      "name": "header",
                      "type": "bytes32"
                    }
                  ],
                  "internalType": "struct ResourceMetadata",
                  "name": "metadata",
                  "type": "tuple"
                },
                {
                  "internalType": "bytes32",
                  "name": "etag",
                  "type": "bytes32"
                }
              ],
              "internalType": "struct HEADResponse",
              "name": "head",
              "type": "tuple"
            },
            {
              "internalType": "bytes32",
              "name": "headerAddress",
              "type": "bytes32"
            }
          ],
          "indexed": false,
          "internalType": "struct DEFINEResponse",
          "name": "defineResponse",
          "type": "tuple"
        }
      ],
      "name": "DEFINESuccess",
      "type": "event"
    },
    {
      "anonymous": false,
      "inputs": [
        {
          "indexed": true,
          "internalType": "address",
          "name": "publisher",
          "type": "address"
        },
        {
          "components": [
            {
              "components": [
                {
                  "internalType": "string",
                  "name": "protocol",
                  "type": "string"
                },
                {
                  "internalType": "uint16",
                  "name": "code",
                  "type": "uint16"
                }
              ],
              "internalType": "struct ResponseLine",
              "name": "responseLine",
              "type": "tuple"
            },
            {
              "components": [
                {
                  "internalType": "uint16",
                  "name": "methods",
                  "type": "uint16"
                },
                {
                  "components": [
                    {
                      "internalType": "uint256",
                      "name": "maxAge",
                      "type": "uint256"
                    },
                    {
                      "internalType": "bool",
                      "name": "noStore",
                      "type": "bool"
                    },
                    {
                      "internalType": "bool",
                      "name": "noCache",
                      "type": "bool"
                    },
                    {
                      "internalType": "bool",
                      "name": "immutableFlag",
                      "type": "bool"
                    },
                    {
                      "internalType": "bool",
                      "name": "publicFlag",
                      "type": "bool"
                    }
                  ],
                  "internalType": "struct CacheControl",
                  "name": "cache",
                  "type": "tuple"
                },
                {
                  "components": [
                    {
                      "internalType": "uint16",
                      "name": "code",
                      "type": "uint16"
                    },
                    {
                      "internalType": "string",
                      "name": "location",
                      "type": "string"
                    }
                  ],
                  "internalType": "struct Redirect",
                  "name": "redirect",
                  "type": "tuple"
                },
                {
                  "internalType": "bytes32",
                  "name": "resourceAdmin",
                  "type": "bytes32"
                }
              ],
              "internalType": "struct HeaderInfo",
              "name": "headerInfo",
              "type": "tuple"
            },
            {
              "components": [
                {
                  "internalType": "bytes2",
                  "name": "mimeType",
                  "type": "bytes2"
                },
                {
                  "internalType": "bytes2",
                  "name": "charset",
                  "type": "bytes2"
                },
                {
                  "internalType": "bytes2",
                  "name": "encoding",
                  "type": "bytes2"
                },
                {
                  "internalType": "bytes2",
                  "name": "language",
                  "type": "bytes2"
                },
                {
                  "internalType": "uint256",
                  "name": "size",
                  "type": "uint256"
                },
                {
                  "internalType": "uint256",
                  "name": "version",
                  "type": "uint256"
                },
                {
                  "internalType": "uint256",
                  "name": "lastModified",
                  "type": "uint256"
                },
                {
                  "internalType": "bytes32",
                  "name": "header",
                  "type": "bytes32"
                }
              ],
              "internalType": "struct ResourceMetadata",
              "name": "metadata",
              "type": "tuple"
            },
            {
              "internalType": "bytes32",
              "name": "etag",
              "type": "bytes32"
            }
          ],
          "indexed": false,
          "internalType": "struct HEADResponse",
          "name": "deleteResponse",
          "type": "tuple"
        }
      ],
      "name": "DELETESuccess",
      "type": "event"
    },
    {
      "anonymous": false,
      "inputs": [
        {
          "indexed": false,
          "internalType": "string",
          "name": "path",
          "type": "string"
        }
      ],
      "name": "MetadataDeleted",
      "type": "event"
    },
    {
      "anonymous": false,
      "inputs": [
        {
          "indexed": false,
          "internalType": "string",
          "name": "path",
          "type": "string"
        }
      ],
      "name": "MetadataUpdated",
      "type": "event"
    },
    {
      "anonymous": false,
      "inputs": [
        {
          "indexed": false,
          "internalType": "string",
          "name": "path",
          "type": "string"
        },
        {
          "indexed": false,
          "internalType": "uint256",
          "name": "chunkIndex",
          "type": "uint256"
        }
      ],
      "name": "OutOfBoundsChunk",
      "type": "event"
    },
    {
      "anonymous": false,
      "inputs": [
        {
          "indexed": true,
          "internalType": "address",
          "name": "publisher",
          "type": "address"
        },
        {
          "components": [
            {
              "components": [
                {
                  "components": [
                    {
                      "internalType": "string",
                      "name": "protocol",
                      "type": "string"
                    },
                    {
                      "internalType": "uint16",
                      "name": "code",
                      "type": "uint16"
                    }
                  ],
                  "internalType": "struct ResponseLine",
                  "name": "responseLine",
                  "type": "tuple"
                },
                {
                  "components": [
                    {
                      "internalType": "uint16",
                      "name": "methods",
                      "type": "uint16"
                    },
                    {
                      "components": [
                        {
                          "internalType": "uint256",
                          "name": "maxAge",
                          "type": "uint256"
                        },
                        {
                          "internalType": "bool",
                          "name": "noStore",
                          "type": "bool"
                        },
                        {
                          "internalType": "bool",
                          "name": "noCache",
                          "type": "bool"
                        },
                        {
                          "internalType": "bool",
                          "name": "immutableFlag",
                          "type": "bool"
                        },
                        {
                          "internalType": "bool",
                          "name": "publicFlag",
                          "type": "bool"
                        }
                      ],
                      "internalType": "struct CacheControl",
                      "name": "cache",
                      "type": "tuple"
                    },
                    {
                      "components": [
                        {
                          "internalType": "uint16",
                          "name": "code",
                          "type": "uint16"
                        },
                        {
                          "internalType": "string",
                          "name": "location",
                          "type": "string"
                        }
                      ],
                      "internalType": "struct Redirect",
                      "name": "redirect",
                      "type": "tuple"
                    },
                    {
                      "internalType": "bytes32",
                      "name": "resourceAdmin",
                      "type": "bytes32"
                    }
                  ],
                  "internalType": "struct HeaderInfo",
                  "name": "headerInfo",
                  "type": "tuple"
                },
                {
                  "components": [
                    {
                      "internalType": "bytes2",
                      "name": "mimeType",
                      "type": "bytes2"
                    },
                    {
                      "internalType": "bytes2",
                      "name": "charset",
                      "type": "bytes2"
                    },
                    {
                      "internalType": "bytes2",
                      "name": "encoding",
                      "type": "bytes2"
                    },
                    {
                      "internalType": "bytes2",
                      "name": "language",
                      "type": "bytes2"
                    },
                    {
                      "internalType": "uint256",
                      "name": "size",
                      "type": "uint256"
                    },
                    {
                      "internalType": "uint256",
                      "name": "version",
                      "type": "uint256"
                    },
                    {
                      "internalType": "uint256",
                      "name": "lastModified",
                      "type": "uint256"
                    },
                    {
                      "internalType": "bytes32",
                      "name": "header",
                      "type": "bytes32"
                    }
                  ],
                  "internalType": "struct ResourceMetadata",
                  "name": "metadata",
                  "type": "tuple"
                },
                {
                  "internalType": "bytes32",
                  "name": "etag",
                  "type": "bytes32"
                }
              ],
              "internalType": "struct HEADResponse",
              "name": "head",
              "type": "tuple"
            },
            {
              "internalType": "bytes32[]",
              "name": "dataPoints",
              "type": "bytes32[]"
            }
          ],
          "indexed": false,
          "internalType": "struct LOCATEResponse",
          "name": "patchResponse",
          "type": "tuple"
        }
      ],
      "name": "PATCHSuccess",
      "type": "event"
    },
    {
      "anonymous": false,
      "inputs": [
        {
          "indexed": true,
          "internalType": "address",
          "name": "publisher",
          "type": "address"
        },
        {
          "components": [
            {
              "components": [
                {
                  "components": [
                    {
                      "internalType": "string",
                      "name": "protocol",
                      "type": "string"
                    },
                    {
                      "internalType": "uint16",
                      "name": "code",
                      "type": "uint16"
                    }
                  ],
                  "internalType": "struct ResponseLine",
                  "name": "responseLine",
                  "type": "tuple"
                },
                {
                  "components": [
                    {
                      "internalType": "uint16",
                      "name": "methods",
                      "type": "uint16"
                    },
                    {
                      "components": [
                        {
                          "internalType": "uint256",
                          "name": "maxAge",
                          "type": "uint256"
                        },
                        {
                          "internalType": "bool",
                          "name": "noStore",
                          "type": "bool"
                        },
                        {
                          "internalType": "bool",
                          "name": "noCache",
                          "type": "bool"
                        },
                        {
                          "internalType": "bool",
                          "name": "immutableFlag",
                          "type": "bool"
                        },
                        {
                          "internalType": "bool",
                          "name": "publicFlag",
                          "type": "bool"
                        }
                      ],
                      "internalType": "struct CacheControl",
                      "name": "cache",
                      "type": "tuple"
                    },
                    {
                      "components": [
                        {
                          "internalType": "uint16",
                          "name": "code",
                          "type": "uint16"
                        },
                        {
                          "internalType": "string",
                          "name": "location",
                          "type": "string"
                        }
                      ],
                      "internalType": "struct Redirect",
                      "name": "redirect",
                      "type": "tuple"
                    },
                    {
                      "internalType": "bytes32",
                      "name": "resourceAdmin",
                      "type": "bytes32"
                    }
                  ],
                  "internalType": "struct HeaderInfo",
                  "name": "headerInfo",
                  "type": "tuple"
                },
                {
                  "components": [
                    {
                      "internalType": "bytes2",
                      "name": "mimeType",
                      "type": "bytes2"
                    },
                    {
                      "internalType": "bytes2",
                      "name": "charset",
                      "type": "bytes2"
                    },
                    {
                      "internalType": "bytes2",
                      "name": "encoding",
                      "type": "bytes2"
                    },
                    {
                      "internalType": "bytes2",
                      "name": "language",
                      "type": "bytes2"
                    },
                    {
                      "internalType": "uint256",
                      "name": "size",
                      "type": "uint256"
                    },
                    {
                      "internalType": "uint256",
                      "name": "version",
                      "type": "uint256"
                    },
                    {
                      "internalType": "uint256",
                      "name": "lastModified",
                      "type": "uint256"
                    },
                    {
                      "internalType": "bytes32",
                      "name": "header",
                      "type": "bytes32"
                    }
                  ],
                  "internalType": "struct ResourceMetadata",
                  "name": "metadata",
                  "type": "tuple"
                },
                {
                  "internalType": "bytes32",
                  "name": "etag",
                  "type": "bytes32"
                }
              ],
              "internalType": "struct HEADResponse",
              "name": "head",
              "type": "tuple"
            },
            {
              "internalType": "bytes32[]",
              "name": "dataPoints",
              "type": "bytes32[]"
            }
          ],
          "indexed": false,
          "internalType": "struct LOCATEResponse",
          "name": "putResponse",
          "type": "tuple"
        }
      ],
      "name": "PUTSuccess",
      "type": "event"
    },
    {
      "anonymous": false,
      "inputs": [
        {
          "indexed": false,
          "internalType": "string",
          "name": "path",
          "type": "string"
        }
      ],
      "name": "ResourceCreated",
      "type": "event"
    },
    {
      "anonymous": false,
      "inputs": [
        {
          "indexed": false,
          "internalType": "string",
          "name": "path",
          "type": "string"
        }
      ],
      "name": "ResourceDeleted",
      "type": "event"
    },
    {
      "anonymous": false,
      "inputs": [
        {
          "indexed": true,
          "internalType": "bytes32",
          "name": "role",
          "type": "bytes32"
        }
      ],
      "name": "ResourceRoleCreated",
      "type": "event"
    },
    {
      "anonymous": false,
      "inputs": [
        {
          "indexed": false,
          "internalType": "string",
          "name": "path",
          "type": "string"
        },
        {
          "indexed": false,
          "internalType": "uint256",
          "name": "chunkIndex",
          "type": "uint256"
        }
      ],
      "name": "ResourceUpdated",
      "type": "event"
    },
    {
      "anonymous": false,
      "inputs": [
        {
          "indexed": true,
          "internalType": "bytes32",
          "name": "role",
          "type": "bytes32"
        },
        {
          "indexed": true,
          "internalType": "bytes32",
          "name": "previousAdminRole",
          "type": "bytes32"
        },
        {
          "indexed": true,
          "internalType": "bytes32",
          "name": "newAdminRole",
          "type": "bytes32"
        }
      ],
      "name": "RoleAdminChanged",
      "type": "event"
    },
    {
      "anonymous": false,
      "inputs": [
        {
          "indexed": true,
          "internalType": "bytes32",
          "name": "role",
          "type": "bytes32"
        },
        {
          "indexed": true,
          "internalType": "address",
          "name": "account",
          "type": "address"
        },
        {
          "indexed": true,
          "internalType": "address",
          "name": "sender",
          "type": "address"
        }
      ],
      "name": "RoleGranted",
      "type": "event"
    },
    {
      "anonymous": false,
      "inputs": [
        {
          "indexed": true,
          "internalType": "bytes32",
          "name": "role",
          "type": "bytes32"
        },
        {
          "indexed": true,
          "internalType": "address",
          "name": "account",
          "type": "address"
        },
        {
          "indexed": true,
          "internalType": "address",
          "name": "sender",
          "type": "address"
        }
      ],
      "name": "RoleRevoked",
      "type": "event"
    },
    {
      "anonymous": false,
      "inputs": [
        {
          "indexed": false,
          "internalType": "bytes32",
          "name": "oldSiteAdmin",
          "type": "bytes32"
        },
        {
          "indexed": false,
          "internalType": "bytes32",
          "name": "newSiteAdmin",
          "type": "bytes32"
        }
      ],
      "name": "SiteAdminChanged",
      "type": "event"
    },
    {
      "inputs": [],
      "name": "DEFAULT_ADMIN_ROLE",
      "outputs": [
        {
          "internalType": "bytes32",
          "name": "",
          "type": "bytes32"
        }
      ],
      "stateMutability": "view",
      "type": "function"
    },
    {
      "inputs": [
        {
          "components": [
            {
              "components": [
                {
                  "components": [
                    {
                      "internalType": "string",
                      "name": "protocol",
                      "type": "string"
                    },
                    {
                      "internalType": "string",
                      "name": "path",
                      "type": "string"
                    },
                    {
                      "internalType": "enum Method",
                      "name": "method",
                      "type": "uint8"
                    }
                  ],
                  "internalType": "struct RequestLine",
                  "name": "requestLine",
                  "type": "tuple"
                },
                {
                  "internalType": "uint256",
                  "name": "ifModifiedSince",
                  "type": "uint256"
                },
                {
                  "internalType": "bytes32",
                  "name": "ifNoneMatch",
                  "type": "bytes32"
                }
              ],
              "internalType": "struct HEADRequest",
              "name": "head",
              "type": "tuple"
            },
            {
              "components": [
                {
                  "internalType": "uint16",
                  "name": "methods",
                  "type": "uint16"
                },
                {
                  "components": [
                    {
                      "internalType": "uint256",
                      "name": "maxAge",
                      "type": "uint256"
                    },
                    {
                      "internalType": "bool",
                      "name": "noStore",
                      "type": "bool"
                    },
                    {
                      "internalType": "bool",
                      "name": "noCache",
                      "type": "bool"
                    },
                    {
                      "internalType": "bool",
                      "name": "immutableFlag",
                      "type": "bool"
                    },
                    {
                      "internalType": "bool",
                      "name": "publicFlag",
                      "type": "bool"
                    }
                  ],
                  "internalType": "struct CacheControl",
                  "name": "cache",
                  "type": "tuple"
                },
                {
                  "components": [
                    {
                      "internalType": "uint16",
                      "name": "code",
                      "type": "uint16"
                    },
                    {
                      "internalType": "string",
                      "name": "location",
                      "type": "string"
                    }
                  ],
                  "internalType": "struct Redirect",
                  "name": "redirect",
                  "type": "tuple"
                },
                {
                  "internalType": "bytes32",
                  "name": "resourceAdmin",
                  "type": "bytes32"
                }
              ],
              "internalType": "struct HeaderInfo",
              "name": "data",
              "type": "tuple"
            }
          ],
          "internalType": "struct DEFINERequest",
          "name": "defineRequest",
          "type": "tuple"
        }
      ],
      "name": "DEFINE",
      "outputs": [
        {
          "components": [
            {
              "components": [
                {
                  "components": [
                    {
                      "internalType": "string",
                      "name": "protocol",
                      "type": "string"
                    },
                    {
                      "internalType": "uint16",
                      "name": "code",
                      "type": "uint16"
                    }
                  ],
                  "internalType": "struct ResponseLine",
                  "name": "responseLine",
                  "type": "tuple"
                },
                {
                  "components": [
                    {
                      "internalType": "uint16",
                      "name": "methods",
                      "type": "uint16"
                    },
                    {
                      "components": [
                        {
                          "internalType": "uint256",
                          "name": "maxAge",
                          "type": "uint256"
                        },
                        {
                          "internalType": "bool",
                          "name": "noStore",
                          "type": "bool"
                        },
                        {
                          "internalType": "bool",
                          "name": "noCache",
                          "type": "bool"
                        },
                        {
                          "internalType": "bool",
                          "name": "immutableFlag",
                          "type": "bool"
                        },
                        {
                          "internalType": "bool",
                          "name": "publicFlag",
                          "type": "bool"
                        }
                      ],
                      "internalType": "struct CacheControl",
                      "name": "cache",
                      "type": "tuple"
                    },
                    {
                      "components": [
                        {
                          "internalType": "uint16",
                          "name": "code",
                          "type": "uint16"
                        },
                        {
                          "internalType": "string",
                          "name": "location",
                          "type": "string"
                        }
                      ],
                      "internalType": "struct Redirect",
                      "name": "redirect",
                      "type": "tuple"
                    },
                    {
                      "internalType": "bytes32",
                      "name": "resourceAdmin",
                      "type": "bytes32"
                    }
                  ],
                  "internalType": "struct HeaderInfo",
                  "name": "headerInfo",
                  "type": "tuple"
                },
                {
                  "components": [
                    {
                      "internalType": "bytes2",
                      "name": "mimeType",
                      "type": "bytes2"
                    },
                    {
                      "internalType": "bytes2",
                      "name": "charset",
                      "type": "bytes2"
                    },
                    {
                      "internalType": "bytes2",
                      "name": "encoding",
                      "type": "bytes2"
                    },
                    {
                      "internalType": "bytes2",
                      "name": "language",
                      "type": "bytes2"
                    },
                    {
                      "internalType": "uint256",
                      "name": "size",
                      "type": "uint256"
                    },
                    {
                      "internalType": "uint256",
                      "name": "version",
                      "type": "uint256"
                    },
                    {
                      "internalType": "uint256",
                      "name": "lastModified",
                      "type": "uint256"
                    },
                    {
                      "internalType": "bytes32",
                      "name": "header",
                      "type": "bytes32"
                    }
                  ],
                  "internalType": "struct ResourceMetadata",
                  "name": "metadata",
                  "type": "tuple"
                },
                {
                  "internalType": "bytes32",
                  "name": "etag",
                  "type": "bytes32"
                }
              ],
              "internalType": "struct HEADResponse",
              "name": "head",
              "type": "tuple"
            },
            {
              "internalType": "bytes32",
              "name": "headerAddress",
              "type": "bytes32"
            }
          ],
          "internalType": "struct DEFINEResponse",
          "name": "defineResponse",
          "type": "tuple"
        }
      ],
      "stateMutability": "nonpayable",
      "type": "function"
    },
    {
      "inputs": [
        {
          "components": [
            {
              "components": [
                {
                  "internalType": "string",
                  "name": "protocol",
                  "type": "string"
                },
                {
                  "internalType": "string",
                  "name": "path",
                  "type": "string"
                },
                {
                  "internalType": "enum Method",
                  "name": "method",
                  "type": "uint8"
                }
              ],
              "internalType": "struct RequestLine",
              "name": "requestLine",
              "type": "tuple"
            },
            {
              "internalType": "uint256",
              "name": "ifModifiedSince",
              "type": "uint256"
            },
            {
              "internalType": "bytes32",
              "name": "ifNoneMatch",
              "type": "bytes32"
            }
          ],
          "internalType": "struct HEADRequest",
          "name": "deleteRequest",
          "type": "tuple"
        }
      ],
      "name": "DELETE",
      "outputs": [
        {
          "components": [
            {
              "components": [
                {
                  "internalType": "string",
                  "name": "protocol",
                  "type": "string"
                },
                {
                  "internalType": "uint16",
                  "name": "code",
                  "type": "uint16"
                }
              ],
              "internalType": "struct ResponseLine",
              "name": "responseLine",
              "type": "tuple"
            },
            {
              "components": [
                {
                  "internalType": "uint16",
                  "name": "methods",
                  "type": "uint16"
                },
                {
                  "components": [
                    {
                      "internalType": "uint256",
                      "name": "maxAge",
                      "type": "uint256"
                    },
                    {
                      "internalType": "bool",
                      "name": "noStore",
                      "type": "bool"
                    },
                    {
                      "internalType": "bool",
                      "name": "noCache",
                      "type": "bool"
                    },
                    {
                      "internalType": "bool",
                      "name": "immutableFlag",
                      "type": "bool"
                    },
                    {
                      "internalType": "bool",
                      "name": "publicFlag",
                      "type": "bool"
                    }
                  ],
                  "internalType": "struct CacheControl",
                  "name": "cache",
                  "type": "tuple"
                },
                {
                  "components": [
                    {
                      "internalType": "uint16",
                      "name": "code",
                      "type": "uint16"
                    },
                    {
                      "internalType": "string",
                      "name": "location",
                      "type": "string"
                    }
                  ],
                  "internalType": "struct Redirect",
                  "name": "redirect",
                  "type": "tuple"
                },
                {
                  "internalType": "bytes32",
                  "name": "resourceAdmin",
                  "type": "bytes32"
                }
              ],
              "internalType": "struct HeaderInfo",
              "name": "headerInfo",
              "type": "tuple"
            },
            {
              "components": [
                {
                  "internalType": "bytes2",
                  "name": "mimeType",
                  "type": "bytes2"
                },
                {
                  "internalType": "bytes2",
                  "name": "charset",
                  "type": "bytes2"
                },
                {
                  "internalType": "bytes2",
                  "name": "encoding",
                  "type": "bytes2"
                },
                {
                  "internalType": "bytes2",
                  "name": "language",
                  "type": "bytes2"
                },
                {
                  "internalType": "uint256",
                  "name": "size",
                  "type": "uint256"
                },
                {
                  "internalType": "uint256",
                  "name": "version",
                  "type": "uint256"
                },
                {
                  "internalType": "uint256",
                  "name": "lastModified",
                  "type": "uint256"
                },
                {
                  "internalType": "bytes32",
                  "name": "header",
                  "type": "bytes32"
                }
              ],
              "internalType": "struct ResourceMetadata",
              "name": "metadata",
              "type": "tuple"
            },
            {
              "internalType": "bytes32",
              "name": "etag",
              "type": "bytes32"
            }
          ],
          "internalType": "struct HEADResponse",
          "name": "deleteResponse",
          "type": "tuple"
        }
      ],
      "stateMutability": "nonpayable",
      "type": "function"
    },
    {
      "inputs": [],
      "name": "DPR",
      "outputs": [
        {
          "internalType": "contract IDataPointRegistryV2",
          "name": "",
          "type": "address"
        }
      ],
      "stateMutability": "view",
      "type": "function"
    },
    {
      "inputs": [],
      "name": "DPS",
      "outputs": [
        {
          "internalType": "contract IDataPointStorageV2",
          "name": "",
          "type": "address"
        }
      ],
      "stateMutability": "view",
      "type": "function"
    },
    {
      "inputs": [
        {
          "components": [
            {
              "components": [
                {
                  "internalType": "string",
                  "name": "protocol",
                  "type": "string"
                },
                {
                  "internalType": "string",
                  "name": "path",
                  "type": "string"
                },
                {
                  "internalType": "enum Method",
                  "name": "method",
                  "type": "uint8"
                }
              ],
              "internalType": "struct RequestLine",
              "name": "requestLine",
              "type": "tuple"
            },
            {
              "internalType": "uint256",
              "name": "ifModifiedSince",
              "type": "uint256"
            },
            {
              "internalType": "bytes32",
              "name": "ifNoneMatch",
              "type": "bytes32"
            }
          ],
          "internalType": "struct HEADRequest",
          "name": "getRequest",
          "type": "tuple"
        }
      ],
      "name": "GET",
      "outputs": [
        {
          "components": [
            {
              "components": [
                {
                  "components": [
                    {
                      "internalType": "string",
                      "name": "protocol",
                      "type": "string"
                    },
                    {
                      "internalType": "uint16",
                      "name": "code",
                      "type": "uint16"
                    }
                  ],
                  "internalType": "struct ResponseLine",
                  "name": "responseLine",
                  "type": "tuple"
                },
                {
                  "components": [
                    {
                      "internalType": "uint16",
                      "name": "methods",
                      "type": "uint16"
                    },
                    {
                      "components": [
                        {
                          "internalType": "uint256",
                          "name": "maxAge",
                          "type": "uint256"
                        },
                        {
                          "internalType": "bool",
                          "name": "noStore",
                          "type": "bool"
                        },
                        {
                          "internalType": "bool",
                          "name": "noCache",
                          "type": "bool"
                        },
                        {
                          "internalType": "bool",
                          "name": "immutableFlag",
                          "type": "bool"
                        },
                        {
                          "internalType": "bool",
                          "name": "publicFlag",
                          "type": "bool"
                        }
                      ],
                      "internalType": "struct CacheControl",
                      "name": "cache",
                      "type": "tuple"
                    },
                    {
                      "components": [
                        {
                          "internalType": "uint16",
                          "name": "code",
                          "type": "uint16"
                        },
                        {
                          "internalType": "string",
                          "name": "location",
                          "type": "string"
                        }
                      ],
                      "internalType": "struct Redirect",
                      "name": "redirect",
                      "type": "tuple"
                    },
                    {
                      "internalType": "bytes32",
                      "name": "resourceAdmin",
                      "type": "bytes32"
                    }
                  ],
                  "internalType": "struct HeaderInfo",
                  "name": "headerInfo",
                  "type": "tuple"
                },
                {
                  "components": [
                    {
                      "internalType": "bytes2",
                      "name": "mimeType",
                      "type": "bytes2"
                    },
                    {
                      "internalType": "bytes2",
                      "name": "charset",
                      "type": "bytes2"
                    },
                    {
                      "internalType": "bytes2",
                      "name": "encoding",
                      "type": "bytes2"
                    },
                    {
                      "internalType": "bytes2",
                      "name": "language",
                      "type": "bytes2"
                    },
                    {
                      "internalType": "uint256",
                      "name": "size",
                      "type": "uint256"
                    },
                    {
                      "internalType": "uint256",
                      "name": "version",
                      "type": "uint256"
                    },
                    {
                      "internalType": "uint256",
                      "name": "lastModified",
                      "type": "uint256"
                    },
                    {
                      "internalType": "bytes32",
                      "name": "header",
                      "type": "bytes32"
                    }
                  ],
                  "internalType": "struct ResourceMetadata",
                  "name": "metadata",
                  "type": "tuple"
                },
                {
                  "internalType": "bytes32",
                  "name": "etag",
                  "type": "bytes32"
                }
              ],
              "internalType": "struct HEADResponse",
              "name": "head",
              "type": "tuple"
            },
            {
              "internalType": "bytes32[]",
              "name": "dataPoints",
              "type": "bytes32[]"
            }
          ],
          "internalType": "struct LOCATEResponse",
          "name": "locateResponse",
          "type": "tuple"
        }
      ],
      "stateMutability": "view",
      "type": "function"
    },
    {
      "inputs": [
        {
          "components": [
            {
              "components": [
                {
                  "internalType": "string",
                  "name": "protocol",
                  "type": "string"
                },
                {
                  "internalType": "string",
                  "name": "path",
                  "type": "string"
                },
                {
                  "internalType": "enum Method",
                  "name": "method",
                  "type": "uint8"
                }
              ],
              "internalType": "struct RequestLine",
              "name": "requestLine",
              "type": "tuple"
            },
            {
              "internalType": "uint256",
              "name": "ifModifiedSince",
              "type": "uint256"
            },
            {
              "internalType": "bytes32",
              "name": "ifNoneMatch",
              "type": "bytes32"
            }
          ],
          "internalType": "struct HEADRequest",
          "name": "headRequest",
          "type": "tuple"
        }
      ],
      "name": "HEAD",
      "outputs": [
        {
          "components": [
            {
              "components": [
                {
                  "internalType": "string",
                  "name": "protocol",
                  "type": "string"
                },
                {
                  "internalType": "uint16",
                  "name": "code",
                  "type": "uint16"
                }
              ],
              "internalType": "struct ResponseLine",
              "name": "responseLine",
              "type": "tuple"
            },
            {
              "components": [
                {
                  "internalType": "uint16",
                  "name": "methods",
                  "type": "uint16"
                },
                {
                  "components": [
                    {
                      "internalType": "uint256",
                      "name": "maxAge",
                      "type": "uint256"
                    },
                    {
                      "internalType": "bool",
                      "name": "noStore",
                      "type": "bool"
                    },
                    {
                      "internalType": "bool",
                      "name": "noCache",
                      "type": "bool"
                    },
                    {
                      "internalType": "bool",
                      "name": "immutableFlag",
                      "type": "bool"
                    },
                    {
                      "internalType": "bool",
                      "name": "publicFlag",
                      "type": "bool"
                    }
                  ],
                  "internalType": "struct CacheControl",
                  "name": "cache",
                  "type": "tuple"
                },
                {
                  "components": [
                    {
                      "internalType": "uint16",
                      "name": "code",
                      "type": "uint16"
                    },
                    {
                      "internalType": "string",
                      "name": "location",
                      "type": "string"
                    }
                  ],
                  "internalType": "struct Redirect",
                  "name": "redirect",
                  "type": "tuple"
                },
                {
                  "internalType": "bytes32",
                  "name": "resourceAdmin",
                  "type": "bytes32"
                }
              ],
              "internalType": "struct HeaderInfo",
              "name": "headerInfo",
              "type": "tuple"
            },
            {
              "components": [
                {
                  "internalType": "bytes2",
                  "name": "mimeType",
                  "type": "bytes2"
                },
                {
                  "internalType": "bytes2",
                  "name": "charset",
                  "type": "bytes2"
                },
                {
                  "internalType": "bytes2",
                  "name": "encoding",
                  "type": "bytes2"
                },
                {
                  "internalType": "bytes2",
                  "name": "language",
                  "type": "bytes2"
                },
                {
                  "internalType": "uint256",
                  "name": "size",
                  "type": "uint256"
                },
                {
                  "internalType": "uint256",
                  "name": "version",
                  "type": "uint256"
                },
                {
                  "internalType": "uint256",
                  "name": "lastModified",
                  "type": "uint256"
                },
                {
                  "internalType": "bytes32",
                  "name": "header",
                  "type": "bytes32"
                }
              ],
              "internalType": "struct ResourceMetadata",
              "name": "metadata",
              "type": "tuple"
            },
            {
              "internalType": "bytes32",
              "name": "etag",
              "type": "bytes32"
            }
          ],
          "internalType": "struct HEADResponse",
          "name": "head",
          "type": "tuple"
        }
      ],
      "stateMutability": "view",
      "type": "function"
    },
    {
      "inputs": [
        {
          "components": [
            {
              "components": [
                {
                  "internalType": "string",
                  "name": "protocol",
                  "type": "string"
                },
                {
                  "internalType": "string",
                  "name": "path",
                  "type": "string"
                },
                {
                  "internalType": "enum Method",
                  "name": "method",
                  "type": "uint8"
                }
              ],
              "internalType": "struct RequestLine",
              "name": "requestLine",
              "type": "tuple"
            },
            {
              "internalType": "uint256",
              "name": "ifModifiedSince",
              "type": "uint256"
            },
            {
              "internalType": "bytes32",
              "name": "ifNoneMatch",
              "type": "bytes32"
            }
          ],
          "internalType": "struct HEADRequest",
          "name": "locateRequest",
          "type": "tuple"
        }
      ],
      "name": "LOCATE",
      "outputs": [
        {
          "components": [
            {
              "components": [
                {
                  "components": [
                    {
                      "internalType": "string",
                      "name": "protocol",
                      "type": "string"
                    },
                    {
                      "internalType": "uint16",
                      "name": "code",
                      "type": "uint16"
                    }
                  ],
                  "internalType": "struct ResponseLine",
                  "name": "responseLine",
                  "type": "tuple"
                },
                {
                  "components": [
                    {
                      "internalType": "uint16",
                      "name": "methods",
                      "type": "uint16"
                    },
                    {
                      "components": [
                        {
                          "internalType": "uint256",
                          "name": "maxAge",
                          "type": "uint256"
                        },
                        {
                          "internalType": "bool",
                          "name": "noStore",
                          "type": "bool"
                        },
                        {
                          "internalType": "bool",
                          "name": "noCache",
                          "type": "bool"
                        },
                        {
                          "internalType": "bool",
                          "name": "immutableFlag",
                          "type": "bool"
                        },
                        {
                          "internalType": "bool",
                          "name": "publicFlag",
                          "type": "bool"
                        }
                      ],
                      "internalType": "struct CacheControl",
                      "name": "cache",
                      "type": "tuple"
                    },
                    {
                      "components": [
                        {
                          "internalType": "uint16",
                          "name": "code",
                          "type": "uint16"
                        },
                        {
                          "internalType": "string",
                          "name": "location",
                          "type": "string"
                        }
                      ],
                      "internalType": "struct Redirect",
                      "name": "redirect",
                      "type": "tuple"
                    },
                    {
                      "internalType": "bytes32",
                      "name": "resourceAdmin",
                      "type": "bytes32"
                    }
                  ],
                  "internalType": "struct HeaderInfo",
                  "name": "headerInfo",
                  "type": "tuple"
                },
                {
                  "components": [
                    {
                      "internalType": "bytes2",
                      "name": "mimeType",
                      "type": "bytes2"
                    },
                    {
                      "internalType": "bytes2",
                      "name": "charset",
                      "type": "bytes2"
                    },
                    {
                      "internalType": "bytes2",
                      "name": "encoding",
                      "type": "bytes2"
                    },
                    {
                      "internalType": "bytes2",
                      "name": "language",
                      "type": "bytes2"
                    },
                    {
                      "internalType": "uint256",
                      "name": "size",
                      "type": "uint256"
                    },
                    {
                      "internalType": "uint256",
                      "name": "version",
                      "type": "uint256"
                    },
                    {
                      "internalType": "uint256",
                      "name": "lastModified",
                      "type": "uint256"
                    },
                    {
                      "internalType": "bytes32",
                      "name": "header",
                      "type": "bytes32"
                    }
                  ],
                  "internalType": "struct ResourceMetadata",
                  "name": "metadata",
                  "type": "tuple"
                },
                {
                  "internalType": "bytes32",
                  "name": "etag",
                  "type": "bytes32"
                }
              ],
              "internalType": "struct HEADResponse",
              "name": "head",
              "type": "tuple"
            },
            {
              "internalType": "bytes32[]",
              "name": "dataPoints",
              "type": "bytes32[]"
            }
          ],
          "internalType": "struct LOCATEResponse",
          "name": "locateResponse",
          "type": "tuple"
        }
      ],
      "stateMutability": "view",
      "type": "function"
    },
    {
      "inputs": [
        {
          "components": [
            {
              "internalType": "string",
              "name": "protocol",
              "type": "string"
            },
            {
              "internalType": "string",
              "name": "path",
              "type": "string"
            },
            {
              "internalType": "enum Method",
              "name": "method",
              "type": "uint8"
            }
          ],
          "internalType": "struct RequestLine",
          "name": "optionsRequest",
          "type": "tuple"
        }
      ],
      "name": "OPTIONS",
      "outputs": [
        {
          "components": [
            {
              "components": [
                {
                  "internalType": "string",
                  "name": "protocol",
                  "type": "string"
                },
                {
                  "internalType": "uint16",
                  "name": "code",
                  "type": "uint16"
                }
              ],
              "internalType": "struct ResponseLine",
              "name": "responseLine",
              "type": "tuple"
            },
            {
              "internalType": "uint16",
              "name": "allow",
              "type": "uint16"
            }
          ],
          "internalType": "struct OPTIONSResponse",
          "name": "optionsResponse",
          "type": "tuple"
        }
      ],
      "stateMutability": "view",
      "type": "function"
    },
    {
      "inputs": [
        {
          "components": [
            {
              "components": [
                {
                  "components": [
                    {
                      "internalType": "string",
                      "name": "protocol",
                      "type": "string"
                    },
                    {
                      "internalType": "string",
                      "name": "path",
                      "type": "string"
                    },
                    {
                      "internalType": "enum Method",
                      "name": "method",
                      "type": "uint8"
                    }
                  ],
                  "internalType": "struct RequestLine",
                  "name": "requestLine",
                  "type": "tuple"
                },
                {
                  "internalType": "uint256",
                  "name": "ifModifiedSince",
                  "type": "uint256"
                },
                {
                  "internalType": "bytes32",
                  "name": "ifNoneMatch",
                  "type": "bytes32"
                }
              ],
              "internalType": "struct HEADRequest",
              "name": "head",
              "type": "tuple"
            },
            {
              "components": [
                {
                  "internalType": "bytes",
                  "name": "data",
                  "type": "bytes"
                },
                {
                  "internalType": "uint256",
                  "name": "chunkIndex",
                  "type": "uint256"
                },
                {
                  "internalType": "address",
                  "name": "publisher",
                  "type": "address"
                }
              ],
              "internalType": "struct DataRegistration[]",
              "name": "data",
              "type": "tuple[]"
            }
          ],
          "internalType": "struct PATCHRequest",
          "name": "patchRequest",
          "type": "tuple"
        }
      ],
      "name": "PATCH",
      "outputs": [
        {
          "components": [
            {
              "components": [
                {
                  "components": [
                    {
                      "internalType": "string",
                      "name": "protocol",
                      "type": "string"
                    },
                    {
                      "internalType": "uint16",
                      "name": "code",
                      "type": "uint16"
                    }
                  ],
                  "internalType": "struct ResponseLine",
                  "name": "responseLine",
                  "type": "tuple"
                },
                {
                  "components": [
                    {
                      "internalType": "uint16",
                      "name": "methods",
                      "type": "uint16"
                    },
                    {
                      "components": [
                        {
                          "internalType": "uint256",
                          "name": "maxAge",
                          "type": "uint256"
                        },
                        {
                          "internalType": "bool",
                          "name": "noStore",
                          "type": "bool"
                        },
                        {
                          "internalType": "bool",
                          "name": "noCache",
                          "type": "bool"
                        },
                        {
                          "internalType": "bool",
                          "name": "immutableFlag",
                          "type": "bool"
                        },
                        {
                          "internalType": "bool",
                          "name": "publicFlag",
                          "type": "bool"
                        }
                      ],
                      "internalType": "struct CacheControl",
                      "name": "cache",
                      "type": "tuple"
                    },
                    {
                      "components": [
                        {
                          "internalType": "uint16",
                          "name": "code",
                          "type": "uint16"
                        },
                        {
                          "internalType": "string",
                          "name": "location",
                          "type": "string"
                        }
                      ],
                      "internalType": "struct Redirect",
                      "name": "redirect",
                      "type": "tuple"
                    },
                    {
                      "internalType": "bytes32",
                      "name": "resourceAdmin",
                      "type": "bytes32"
                    }
                  ],
                  "internalType": "struct HeaderInfo",
                  "name": "headerInfo",
                  "type": "tuple"
                },
                {
                  "components": [
                    {
                      "internalType": "bytes2",
                      "name": "mimeType",
                      "type": "bytes2"
                    },
                    {
                      "internalType": "bytes2",
                      "name": "charset",
                      "type": "bytes2"
                    },
                    {
                      "internalType": "bytes2",
                      "name": "encoding",
                      "type": "bytes2"
                    },
                    {
                      "internalType": "bytes2",
                      "name": "language",
                      "type": "bytes2"
                    },
                    {
                      "internalType": "uint256",
                      "name": "size",
                      "type": "uint256"
                    },
                    {
                      "internalType": "uint256",
                      "name": "version",
                      "type": "uint256"
                    },
                    {
                      "internalType": "uint256",
                      "name": "lastModified",
                      "type": "uint256"
                    },
                    {
                      "internalType": "bytes32",
                      "name": "header",
                      "type": "bytes32"
                    }
                  ],
                  "internalType": "struct ResourceMetadata",
                  "name": "metadata",
                  "type": "tuple"
                },
                {
                  "internalType": "bytes32",
                  "name": "etag",
                  "type": "bytes32"
                }
              ],
              "internalType": "struct HEADResponse",
              "name": "head",
              "type": "tuple"
            },
            {
              "internalType": "bytes32[]",
              "name": "dataPoints",
              "type": "bytes32[]"
            }
          ],
          "internalType": "struct LOCATEResponse",
          "name": "patchResponse",
          "type": "tuple"
        }
      ],
      "stateMutability": "payable",
      "type": "function"
    },
    {
      "inputs": [
        {
          "components": [
            {
              "components": [
                {
                  "components": [
                    {
                      "internalType": "string",
                      "name": "protocol",
                      "type": "string"
                    },
                    {
                      "internalType": "string",
                      "name": "path",
                      "type": "string"
                    },
                    {
                      "internalType": "enum Method",
                      "name": "method",
                      "type": "uint8"
                    }
                  ],
                  "internalType": "struct RequestLine",
                  "name": "requestLine",
                  "type": "tuple"
                },
                {
                  "internalType": "uint256",
                  "name": "ifModifiedSince",
                  "type": "uint256"
                },
                {
                  "internalType": "bytes32",
                  "name": "ifNoneMatch",
                  "type": "bytes32"
                }
              ],
              "internalType": "struct HEADRequest",
              "name": "head",
              "type": "tuple"
            },
            {
              "internalType": "bytes2",
              "name": "mimeType",
              "type": "bytes2"
            },
            {
              "internalType": "bytes2",
              "name": "charset",
              "type": "bytes2"
            },
            {
              "internalType": "bytes2",
              "name": "encoding",
              "type": "bytes2"
            },
            {
              "internalType": "bytes2",
              "name": "language",
              "type": "bytes2"
            },
            {
              "components": [
                {
                  "internalType": "bytes",
                  "name": "data",
                  "type": "bytes"
                },
                {
                  "internalType": "uint256",
                  "name": "chunkIndex",
                  "type": "uint256"
                },
                {
                  "internalType": "address",
                  "name": "publisher",
                  "type": "address"
                }
              ],
              "internalType": "struct DataRegistration[]",
              "name": "data",
              "type": "tuple[]"
            }
          ],
          "internalType": "struct PUTRequest",
          "name": "putRequest",
          "type": "tuple"
        }
      ],
      "name": "PUT",
      "outputs": [
        {
          "components": [
            {
              "components": [
                {
                  "components": [
                    {
                      "internalType": "string",
                      "name": "protocol",
                      "type": "string"
                    },
                    {
                      "internalType": "uint16",
                      "name": "code",
                      "type": "uint16"
                    }
                  ],
                  "internalType": "struct ResponseLine",
                  "name": "responseLine",
                  "type": "tuple"
                },
                {
                  "components": [
                    {
                      "internalType": "uint16",
                      "name": "methods",
                      "type": "uint16"
                    },
                    {
                      "components": [
                        {
                          "internalType": "uint256",
                          "name": "maxAge",
                          "type": "uint256"
                        },
                        {
                          "internalType": "bool",
                          "name": "noStore",
                          "type": "bool"
                        },
                        {
                          "internalType": "bool",
                          "name": "noCache",
                          "type": "bool"
                        },
                        {
                          "internalType": "bool",
                          "name": "immutableFlag",
                          "type": "bool"
                        },
                        {
                          "internalType": "bool",
                          "name": "publicFlag",
                          "type": "bool"
                        }
                      ],
                      "internalType": "struct CacheControl",
                      "name": "cache",
                      "type": "tuple"
                    },
                    {
                      "components": [
                        {
                          "internalType": "uint16",
                          "name": "code",
                          "type": "uint16"
                        },
                        {
                          "internalType": "string",
                          "name": "location",
                          "type": "string"
                        }
                      ],
                      "internalType": "struct Redirect",
                      "name": "redirect",
                      "type": "tuple"
                    },
                    {
                      "internalType": "bytes32",
                      "name": "resourceAdmin",
                      "type": "bytes32"
                    }
                  ],
                  "internalType": "struct HeaderInfo",
                  "name": "headerInfo",
                  "type": "tuple"
                },
                {
                  "components": [
                    {
                      "internalType": "bytes2",
                      "name": "mimeType",
                      "type": "bytes2"
                    },
                    {
                      "internalType": "bytes2",
                      "name": "charset",
                      "type": "bytes2"
                    },
                    {
                      "internalType": "bytes2",
                      "name": "encoding",
                      "type": "bytes2"
                    },
                    {
                      "internalType": "bytes2",
                      "name": "language",
                      "type": "bytes2"
                    },
                    {
                      "internalType": "uint256",
                      "name": "size",
                      "type": "uint256"
                    },
                    {
                      "internalType": "uint256",
                      "name": "version",
                      "type": "uint256"
                    },
                    {
                      "internalType": "uint256",
                      "name": "lastModified",
                      "type": "uint256"
                    },
                    {
                      "internalType": "bytes32",
                      "name": "header",
                      "type": "bytes32"
                    }
                  ],
                  "internalType": "struct ResourceMetadata",
                  "name": "metadata",
                  "type": "tuple"
                },
                {
                  "internalType": "bytes32",
                  "name": "etag",
                  "type": "bytes32"
                }
              ],
              "internalType": "struct HEADResponse",
              "name": "head",
              "type": "tuple"
            },
            {
              "internalType": "bytes32[]",
              "name": "dataPoints",
              "type": "bytes32[]"
            }
          ],
          "internalType": "struct LOCATEResponse",
          "name": "putResponse",
          "type": "tuple"
        }
      ],
      "stateMutability": "payable",
      "type": "function"
    },
    {
      "inputs": [
        {
          "components": [
            {
              "internalType": "uint16",
              "name": "methods",
              "type": "uint16"
            },
            {
              "components": [
                {
                  "internalType": "uint256",
                  "name": "maxAge",
                  "type": "uint256"
                },
                {
                  "internalType": "bool",
                  "name": "noStore",
                  "type": "bool"
                },
                {
                  "internalType": "bool",
                  "name": "noCache",
                  "type": "bool"
                },
                {
                  "internalType": "bool",
                  "name": "immutableFlag",
                  "type": "bool"
                },
                {
                  "internalType": "bool",
                  "name": "publicFlag",
                  "type": "bool"
                }
              ],
              "internalType": "struct CacheControl",
              "name": "cache",
              "type": "tuple"
            },
            {
              "components": [
                {
                  "internalType": "uint16",
                  "name": "code",
                  "type": "uint16"
                },
                {
                  "internalType": "string",
                  "name": "location",
                  "type": "string"
                }
              ],
              "internalType": "struct Redirect",
              "name": "redirect",
              "type": "tuple"
            },
            {
              "internalType": "bytes32",
              "name": "resourceAdmin",
              "type": "bytes32"
            }
          ],
          "internalType": "struct HeaderInfo",
          "name": "_header",
          "type": "tuple"
        }
      ],
      "name": "_updateDefaultHeader",
      "outputs": [],
      "stateMutability": "nonpayable",
      "type": "function"
    },
    {
      "inputs": [
        {
          "internalType": "bytes32",
          "name": "_newSiteAdmin",
          "type": "bytes32"
        }
      ],
      "name": "changeSiteAdmin",
      "outputs": [],
      "stateMutability": "nonpayable",
      "type": "function"
    },
    {
      "inputs": [
        {
          "internalType": "bytes32",
          "name": "_role",
          "type": "bytes32"
        }
      ],
      "name": "createResourceRole",
      "outputs": [],
      "stateMutability": "nonpayable",
      "type": "function"
    },
    {
      "inputs": [
        {
          "internalType": "bytes32",
          "name": "role",
          "type": "bytes32"
        }
      ],
      "name": "getRoleAdmin",
      "outputs": [
        {
          "internalType": "bytes32",
          "name": "",
          "type": "bytes32"
        }
      ],
      "stateMutability": "view",
      "type": "function"
    },
    {
      "inputs": [
        {
          "internalType": "bytes32",
          "name": "role",
          "type": "bytes32"
        },
        {
          "internalType": "address",
          "name": "account",
          "type": "address"
        }
      ],
      "name": "grantRole",
      "outputs": [],
      "stateMutability": "nonpayable",
      "type": "function"
    },
    {
      "inputs": [
        {
          "internalType": "bytes32",
          "name": "role",
          "type": "bytes32"
        },
        {
          "internalType": "address",
          "name": "account",
          "type": "address"
        }
      ],
      "name": "hasRole",
      "outputs": [
        {
          "internalType": "bool",
          "name": "",
          "type": "bool"
        }
      ],
      "stateMutability": "view",
      "type": "function"
    },
    {
      "inputs": [
        {
          "internalType": "bytes32",
          "name": "role",
          "type": "bytes32"
        },
        {
          "internalType": "address",
          "name": "callerConfirmation",
          "type": "address"
        }
      ],
      "name": "renounceRole",
      "outputs": [],
      "stateMutability": "nonpayable",
      "type": "function"
    },
    {
      "inputs": [
        {
          "internalType": "bytes32",
          "name": "role",
          "type": "bytes32"
        },
        {
          "internalType": "address",
          "name": "account",
          "type": "address"
        }
      ],
      "name": "revokeRole",
      "outputs": [],
      "stateMutability": "nonpayable",
      "type": "function"
    },
    {
      "inputs": [
        {
          "internalType": "address",
          "name": "_dpr",
          "type": "address"
        }
      ],
      "name": "setDPR",
      "outputs": [],
      "stateMutability": "nonpayable",
      "type": "function"
    },
    {
      "inputs": [
        {
          "internalType": "bytes4",
          "name": "interfaceId",
          "type": "bytes4"
        }
      ],
      "name": "supportsInterface",
      "outputs": [
        {
          "internalType": "bool",
          "name": "",
          "type": "bool"
        }
      ],
      "stateMutability": "view",
      "type": "function"
    }
  ],
  "bytecode": "0x608060405234801561001057600080fd5b506040516159bb3803806159bb8339818101604052810190610032919061086c565b828282808383827fe883badc8743699137027ae6ca9d40716b522f64bf5b61a15f071a2371479c926001819055506100736000801b826101f960201b60201c565b506100896001546000801b6102f660201b60201c565b5081600d60006101000a81548173ffffffffffffffffffffffffffffffffffffffff021916908373ffffffffffffffffffffffffffffffffffffffff16021790555080600e60008060001b815260200190815260200160002060008201518160000160006101000a81548161ffff021916908361ffff1602179055506020820151816001016000820151816000015560208201518160010160006101000a81548160ff02191690831515021790555060408201518160010160016101000a81548160ff02191690831515021790555060608201518160010160026101000a81548160ff02191690831515021790555060808201518160010160036101000a81548160ff021916908315150217905550505060408201518160030160008201518160000160006101000a81548161ffff021916908361ffff16021790555060208201518160010190816101db9190610af2565b50505060608201518160050155905050505050505050505050610bc4565b600061020b838361035760201b60201c565b6102eb57600160008085815260200190815260200160002060000160008473ffffffffffffffffffffffffffffffffffffffff1673ffffffffffffffffffffffffffffffffffffffff16815260200190815260200160002060006101000a81548160ff02191690831515021790555061028861039360201b60201c565b73ffffffffffffffffffffffffffffffffffffffff168273ffffffffffffffffffffffffffffffffffffffff16847f2f8788117e7eff1d82e926ec794901d17c78024a50270940304540a733656f0d60405160405180910390a4600190506102f0565b600090505b92915050565b60006103078361039b60201b60201c565b905081600080858152602001908152602001600020600101819055508181847fbd79b86ffe0ab8e8776151514217cd7cacd52c909f66475c3af44e129f0b00ff60405160405180910390a4505050565b600061036c6000801b836103ba60201b60201c565b1561037a576001905061038d565b61038a83836103ba60201b60201c565b90505b92915050565b600033905090565b6000806000838152602001908152602001600020600101549050919050565b600080600084815260200190815260200160002060000160008373ffffffffffffffffffffffffffffffffffffffff1673ffffffffffffffffffffffffffffffffffffffff16815260200190815260200160002060009054906101000a900460ff16905092915050565b6000604051905090565b600080fd5b600080fd5b600073ffffffffffffffffffffffffffffffffffffffff82169050919050565b600061046382610438565b9050919050565b61047381610458565b811461047e57600080fd5b50565b6000815190506104908161046a565b92915050565b600080fd5b6000601f19601f8301169050919050565b7f4e487b7100000000000000000000000000000000000000000000000000000000600052604160045260246000fd5b6104e48261049b565b810181811067ffffffffffffffff82111715610503576105026104ac565b5b80604052505050565b6000610516610424565b905061052282826104db565b919050565b600080fd5b600061ffff82169050919050565b6105438161052c565b811461054e57600080fd5b50565b6000815190506105608161053a565b92915050565b6000819050919050565b61057981610566565b811461058457600080fd5b50565b60008151905061059681610570565b92915050565b60008115159050919050565b6105b18161059c565b81146105bc57600080fd5b50565b6000815190506105ce816105a8565b92915050565b600060a082840312156105ea576105e9610496565b5b6105f460a061050c565b9050600061060484828501610587565b6000830152506020610618848285016105bf565b602083015250604061062c848285016105bf565b6040830152506060610640848285016105bf565b6060830152506080610654848285016105bf565b60808301525092915050565b600080fd5b600080fd5b600067ffffffffffffffff821115610685576106846104ac565b5b61068e8261049b565b9050602081019050919050565b60005b838110156106b957808201518184015260208101905061069e565b60008484015250505050565b60006106d86106d38461066a565b61050c565b9050828152602081018484840111156106f4576106f3610665565b5b6106ff84828561069b565b509392505050565b600082601f83011261071c5761071b610660565b5b815161072c8482602086016106c5565b91505092915050565b60006040828403121561074b5761074a610496565b5b610755604061050c565b9050600061076584828501610551565b600083015250602082015167ffffffffffffffff81111561078957610788610527565b5b61079584828501610707565b60208301525092915050565b6000819050919050565b6107b4816107a1565b81146107bf57600080fd5b50565b6000815190506107d1816107ab565b92915050565b600061010082840312156107ee576107ed610496565b5b6107f8608061050c565b9050600061080884828501610551565b600083015250602061081c848285016105d4565b60208301525060c082015167ffffffffffffffff8111156108405761083f610527565b5b61084c84828501610735565b60408301525060e0610860848285016107c2565b60608301525092915050565b6000806000606084860312156108855761088461042e565b5b600061089386828701610481565b935050602084015167ffffffffffffffff8111156108b4576108b3610433565b5b6108c0868287016107d7565b92505060406108d186828701610481565b9150509250925092565b600081519050919050565b7f4e487b7100000000000000000000000000000000000000000000000000000000600052602260045260246000fd5b6000600282049050600182168061092d57607f821691505b6020821081036109405761093f6108e6565b5b50919050565b60008190508160005260206000209050919050565b60006020601f8301049050919050565b600082821b905092915050565b6000600883026109a87fffffffffffffffffffffffffffffffffffffffffffffffffffffffffffffffff8261096b565b6109b2868361096b565b95508019841693508086168417925050509392505050565b6000819050919050565b60006109ef6109ea6109e584610566565b6109ca565b610566565b9050919050565b6000819050919050565b610a09836109d4565b610a1d610a15826109f6565b848454610978565b825550505050565b600090565b610a32610a25565b610a3d818484610a00565b505050565b5b81811015610a6157610a56600082610a2a565b600181019050610a43565b5050565b601f821115610aa657610a7781610946565b610a808461095b565b81016020851015610a8f578190505b610aa3610a9b8561095b565b830182610a42565b50505b505050565b600082821c905092915050565b6000610ac960001984600802610aab565b1980831691505092915050565b6000610ae28383610ab8565b9150826002028217905092915050565b610afb826108db565b67ffffffffffffffff811115610b1457610b136104ac565b5b610b1e8254610915565b610b29828285610a65565b600060209050601f831160018114610b5c5760008415610b4a578287015190505b610b548582610ad6565b865550610bbc565b601f198416610b6a86610946565b60005b82811015610b9257848901518255600182019150602085019450602081019050610b6d565b86831015610baf5784890151610bab601f891682610ab8565b8355505b6001600288020188555050505b505050505050565b614de880610bd36000396000f3fe60806040526004361061012a5760003560e01c8063515fa305116100ab578063b3c1f6661161006f578063b3c1f66614610432578063c2640ed11461046f578063d547741f1461049a578063ec35dd0d146104c3578063ef4e06ec14610500578063fe2dd3e31461052b5761012a565b8063515fa305146103415780637c4439861461037157806391d14854146103a1578063a217fddf146103de578063b2455654146104095761012a565b8063248a9ca3116100f2578063248a9ca31461024c5780632f2ff15d1461028957806332729d5e146102b257806336568abe146102db578063457fc926146103045761012a565b806301ffc9a71461012f57806303ca5dad1461016c578063046d7160146101a95780630e8beb9a146101e65780631ca6b0671461020f575b600080fd5b34801561013b57600080fd5b50610156600480360381019061015191906131d0565b610554565b6040516101639190613218565b60405180910390f35b34801561017857600080fd5b50610193600480360381019061018e9190613444565b6105ce565b6040516101a091906135a3565b60405180910390f35b3480156101b557600080fd5b506101d060048036038101906101cb91906136b1565b610617565b6040516101dd9190613a6c565b60405180910390f35b3480156101f257600080fd5b5061020d60048036038101906102089190613aec565b610664565b005b34801561021b57600080fd5b50610236600480360381019061023191906136b1565b6106b6565b6040516102439190613b85565b60405180910390f35b34801561025857600080fd5b50610273600480360381019061026e9190613ba7565b610703565b6040516102809190613be3565b60405180910390f35b34801561029557600080fd5b506102b060048036038101906102ab9190613bfe565b610722565b005b3480156102be57600080fd5b506102d960048036038101906102d49190613ba7565b610744565b005b3480156102e757600080fd5b5061030260048036038101906102fd9190613bfe565b610797565b005b34801561031057600080fd5b5061032b60048036038101906103269190613eab565b610812565b6040516103389190613f31565b60405180910390f35b61035b600480360381019061035691906141e2565b610b51565b6040516103689190613a6c565b60405180910390f35b61038b6004803603810190610386919061432f565b610d89565b6040516103989190613a6c565b60405180910390f35b3480156103ad57600080fd5b506103c860048036038101906103c39190613bfe565b61105e565b6040516103d59190613218565b60405180910390f35b3480156103ea57600080fd5b506103f361108e565b6040516104009190613be3565b60405180910390f35b34801561041557600080fd5b50610430600480360381019061042b9190613ba7565b611095565b005b34801561043e57600080fd5b50610459600480360381019061045491906136b1565b611134565b6040516104669190613a6c565b60405180910390f35b34801561047b57600080fd5b50610484611181565b60405161049191906143d7565b60405180910390f35b3480156104a657600080fd5b506104c160048036038101906104bc9190613bfe565b6111ab565b005b3480156104cf57600080fd5b506104ea60048036038101906104e591906136b1565b6111cd565b6040516104f79190613b85565b60405180910390f35b34801561050c57600080fd5b506105156113c8565b6040516105229190614413565b60405180910390f35b34801561053757600080fd5b50610552600480360381019061054d919061442e565b611460565b005b60007f7965db0b000000000000000000000000000000000000000000000000000000007bffffffffffffffffffffffffffffffffffffffffffffffffffffffff1916827bffffffffffffffffffffffffffffffffffffffffffffffffffffffff191614806105c757506105c682611479565b5b9050919050565b6105d6612f08565b6006826040019060088111156105ef576105ee614477565b5b9081600881111561060357610602614477565b5b81525050610610826114e3565b9050919050565b61061f612f2c565b6001826000015160400190600881111561063c5761063b614477565b5b908160088111156106505761064f614477565b5b8152505061065d826115c5565b9050919050565b6000801b61067181611633565b81600d60006101000a81548173ffffffffffffffffffffffffffffffffffffffff021916908373ffffffffffffffffffffffffffffffffffffffff1602179055505050565b6106be612f4c565b600082600001516040019060088111156106db576106da614477565b5b908160088111156106ef576106ee614477565b5b815250506106fc82611647565b9050919050565b6000806000838152602001908152602001600020600101549050919050565b61072b82610703565b61073481611633565b61073e838361179a565b50505050565b6000801b61075181611633565b7f80f9b6a37a676933a62100891a89f9c5ebd8d425dbc6d36160234076dd227abf600154836040516107849291906144a6565b60405180910390a1816001819055505050565b61079f61188b565b73ffffffffffffffffffffffffffffffffffffffff168173ffffffffffffffffffffffffffffffffffffffff1614610803576040517f6697b23200000000000000000000000000000000000000000000000000000000815260040160405180910390fd5b61080d8282611893565b505050565b61081a612f89565b816000015160000151602001516108318133611985565b61087c573361083f826119e6565b6040517f81c239270000000000000000000000000000000000000000000000000000000081526004016108739291906144de565b60405180910390fd5b82600001516000015160200151600e6000600f8360405161089d9190614543565b908152602001604051809103902060040154815260200190815260200160002060010160010160029054906101000a900460ff1680156108fe575060006010826040516108ea9190614543565b908152602001604051809103902080549050115b1561094057806040517f1a35a44900000000000000000000000000000000000000000000000000000000815260040161093791906145a4565b60405180910390fd5b6000846000015190506008816000015160400190600881111561096657610965614477565b5b9081600881111561097a57610979614477565b5b81525050600061098982611647565b90506000816000015160200151905060006101948261ffff1614806109b357506101f48261ffff16145b15610ae1576109c58860200151611a08565b905060006109de89600001516000015160200151611b68565b9050610ac68960000151600001516020015160405180610100016040528084600001517dffffffffffffffffffffffffffffffffffffffffffffffffffffffffffff1916815260200184602001517dffffffffffffffffffffffffffffffffffffffffffffffffffffffffffff1916815260200184604001517dffffffffffffffffffffffffffffffffffffffffffffffffffffffffffff1916815260200184606001517dffffffffffffffffffffffffffffffffffffffffffffffffffffffffffff1916815260200160008152602001600081526020016000815260200185815250611d2d565b60c984600001516020019061ffff16908161ffff1681525050505b60405180604001604052808481526020018281525096503373ffffffffffffffffffffffffffffffffffffffff167fb025a5fe8016b6fcec2c3f00b6a02708f698e0bc5c33bd3e0761bd15e1cab75d88604051610b3e9190613f31565b60405180910390a2505050505050919050565b610b59612f2c565b81600001516000015160200151610b708133611985565b610bbb5733610b7e826119e6565b6040517f81c23927000000000000000000000000000000000000000000000000000000008152600401610bb29291906144de565b60405180910390fd5b82600001516000015160200151600e6000600f83604051610bdc9190614543565b908152602001604051809103902060040154815260200190815260200160002060010160010160029054906101000a900460ff168015610c3d57506000601082604051610c299190614543565b908152602001604051809103902080549050115b15610c7f57806040517f1a35a449000000000000000000000000000000000000000000000000000000008152600401610c7691906145a4565b60405180910390fd5b60008460000151905060048160000151604001906008811115610ca557610ca4614477565b5b90816008811115610cb957610cb8614477565b5b815250506000610cc882611647565b90506101f481600001516020015161ffff16148015610cec57506000866020015151115b15610d2957610d078260000151602001518760200151611e8d565b856020018190525060c881600001516020019061ffff16908161ffff16815250505b8085600001819052503373ffffffffffffffffffffffffffffffffffffffff167fb557ef8d1f74cfc3680b0cd8a544a0ca88ebe7e4f3b9d95a08a495989ce92ac686604051610d789190613a6c565b60405180910390a250505050919050565b610d91612f2c565b81600001516000015160200151610da88133611985565b610df35733610db6826119e6565b6040517f81c23927000000000000000000000000000000000000000000000000000000008152600401610dea9291906144de565b60405180910390fd5b6003836000015160000151604001906008811115610e1457610e13614477565b5b90816008811115610e2857610e27614477565b5b815250506000610e3b8460000151611647565b9050600081600001516020015190506101948161ffff161480610e6357506101f48161ffff16145b15610fae5760008560000151600001516020015190506000610e8482611b68565b60e001519050610e9382611ff7565b610f6d826040518061010001604052808a602001517dffffffffffffffffffffffffffffffffffffffffffffffffffffffffffff191681526020018a604001517dffffffffffffffffffffffffffffffffffffffffffffffffffffffffffff191681526020018a606001517dffffffffffffffffffffffffffffffffffffffffffffffffffffffffffff191681526020018a608001517dffffffffffffffffffffffffffffffffffffffffffffffffffffffffffff1916815260200160008152602001600081526020016000815260200184815250611d2d565b60cc925060008760a00151511115610f9357610f8d828860a00151611e8d565b5060c992505b8284600001516020019061ffff16908161ffff168152505050505b8184600001819052506000341115611008573373ffffffffffffffffffffffffffffffffffffffff166108fc349081150290604051600060405180830381858888f19350505050158015611006573d6000803e3d6000fd5b505b3373ffffffffffffffffffffffffffffffffffffffff167f704d8f61270652cea1d4ae1c564dd55ab76a25eede9662b18389375740b4d9fa8560405161104e9190613a6c565b60405180910390a2505050919050565b600061106d6000801b8361208b565b1561107b5760019050611088565b611085838361208b565b90505b92915050565b6000801b81565b6001546110a181611633565b816001548114806110b457506000801b81145b156110f657806040517f125a2bb70000000000000000000000000000000000000000000000000000000081526004016110ed9190613be3565b60405180910390fd5b611102836001546120f5565b827f17a96dcfa97ca23bb8a7066cd78d58de2dc54b954a551ba0113958bfe2e13c2a60405160405180910390a2505050565b61113c612f2c565b6007826000015160400190600881111561115957611158614477565b5b9081600881111561116d5761116c614477565b5b8152505061117a826115c5565b9050919050565b6000600d60009054906101000a900473ffffffffffffffffffffffffffffffffffffffff16905090565b6111b482610703565b6111bd81611633565b6111c78383611893565b50505050565b6111d5612f4c565b8160000151602001516111e88133611985565b61123357336111f6826119e6565b6040517f81c2392700000000000000000000000000000000000000000000000000000000815260040161122a9291906144de565b60405180910390fd5b826000015160200151600e6000600f836040516112509190614543565b908152602001604051809103902060040154815260200190815260200160002060010160010160029054906101000a900460ff1680156112b15750600060108260405161129d9190614543565b908152602001604051809103902080549050115b156112f357806040517f1a35a4490000000000000000000000000000000000000000000000000000000081526004016112ea91906145a4565b60405180910390fd5b600584600001516040019060088111156113105761130f614477565b5b9081600881111561132457611323614477565b5b8152505061133184611647565b92506101f483600001516020015161ffff160361137357611359846000015160200151611ff7565b60cc83600001516020019061ffff16908161ffff16815250505b3373ffffffffffffffffffffffffffffffffffffffff167f73824ce80fb895566cbc511668346532202e418a88d0ecff552761b1df078f6d846040516113b99190613b85565b60405180910390a25050919050565b6000600d60009054906101000a900473ffffffffffffffffffffffffffffffffffffffff1673ffffffffffffffffffffffffffffffffffffffff1663cae646a46040518163ffffffff1660e01b8152600401602060405180830381865afa158015611437573d6000803e3d6000fd5b505050506040513d601f19601f8201168201806040525081019061145b9190614604565b905090565b60015461146c81611633565b61147582612150565b5050565b60007f01ffc9a7000000000000000000000000000000000000000000000000000000007bffffffffffffffffffffffffffffffffffffffffffffffffffffffff1916827bffffffffffffffffffffffffffffffffffffffffffffffffffffffff1916149050919050565b6114eb612f08565b60008260000151905060008360200151905060006101f4905060008560400151905061151684612273565b611524576101f9915061159b565b61152e83826122d9565b61153c57610195915061159a565b600660088111156115505761154f614477565b5b81600881111561156357611562614477565b5b036115995761157d61157484611b68565b60e001516123f0565b60000151856020019061ffff16908161ffff168152505060cc91505b5b5b60405180604001604052808581526020018361ffff16815250856000018190525050505050919050565b6115cd612f2c565b6115d682611647565b81600001819052506101f48160000151600001516020015161ffff160361162e57611608826000015160200151612597565b816020018190525060c88160000151600001516020019061ffff16908161ffff16815250505b919050565b6116448161163f61188b565b61260d565b50565b61164f612f4c565b600061165e83600001516114e3565b6000015190506000816020015190506101f48161ffff16036117935760008460000151602001519050600061169282611b68565b905060006116a38260e001516123f0565b905060006116b9836116b486612597565b61265e565b90506000826040015160000151905060008460800151036116de576101949550611756565b88604001518214806116f757508360c001518960200151115b15611706576101309550611755565b60008161ffff161461171a57809550611754565b6000600881111561172e5761172d614477565b5b896000015160400151600881111561174957611748614477565b5b036117535760c895505b5b5b5b85876020019061ffff16908161ffff1681525050604051806080016040528088815260200184815260200185815260200183815250975050505050505b5050919050565b60006117a6838361105e565b61188057600160008085815260200190815260200160002060000160008473ffffffffffffffffffffffffffffffffffffffff1673ffffffffffffffffffffffffffffffffffffffff16815260200190815260200160002060006101000a81548160ff02191690831515021790555061181d61188b565b73ffffffffffffffffffffffffffffffffffffffff168273ffffffffffffffffffffffffffffffffffffffff16847f2f8788117e7eff1d82e926ec794901d17c78024a50270940304540a733656f0d60405160405180910390a460019050611885565b600090505b92915050565b600033905090565b600061189f838361105e565b1561197a57600080600085815260200190815260200160002060000160008473ffffffffffffffffffffffffffffffffffffffff1673ffffffffffffffffffffffffffffffffffffffff16815260200190815260200160002060006101000a81548160ff02191690831515021790555061191761188b565b73ffffffffffffffffffffffffffffffffffffffff168273ffffffffffffffffffffffffffffffffffffffff16847ff6391f5c32d9c69d2a47ea670b442974b53935d1edc7fd64eb21e047a839171b60405160405180910390a46001905061197f565b600090505b92915050565b600080611991846119e6565b905061199f6001548461105e565b806119b057506119af818461105e565b5b806119dd57507fffffffffffffffffffffffffffffffffffffffffffffffffffffffffffffffff60001b81145b91505092915050565b60006119fd6119f483611b68565b60e001516123f0565b606001519050919050565b6000611a1382612691565b90506000600e600083815260200190815260200160002060000160009054906101000a900461ffff1661ffff1603611b635781600e600083815260200190815260200160002060008201518160000160006101000a81548161ffff021916908361ffff1602179055506020820151816001016000820151816000015560208201518160010160006101000a81548160ff02191690831515021790555060408201518160010160016101000a81548160ff02191690831515021790555060608201518160010160026101000a81548160ff02191690831515021790555060808201518160010160036101000a81548160ff021916908315150217905550505060408201518160030160008201518160000160006101000a81548161ffff021916908361ffff1602179055506020820151816001019081611b529190614833565b505050606082015181600501559050505b919050565b611b70612fac565b600f82604051611b809190614543565b9081526020016040518091039020604051806101000160405290816000820160009054906101000a900460f01b7dffffffffffffffffffffffffffffffffffffffffffffffffffffffffffff19167dffffffffffffffffffffffffffffffffffffffffffffffffffffffffffff191681526020016000820160029054906101000a900460f01b7dffffffffffffffffffffffffffffffffffffffffffffffffffffffffffff19167dffffffffffffffffffffffffffffffffffffffffffffffffffffffffffff191681526020016000820160049054906101000a900460f01b7dffffffffffffffffffffffffffffffffffffffffffffffffffffffffffff19167dffffffffffffffffffffffffffffffffffffffffffffffffffffffffffff191681526020016000820160069054906101000a900460f01b7dffffffffffffffffffffffffffffffffffffffffffffffffffffffffffff19167dffffffffffffffffffffffffffffffffffffffffffffffffffffffffffff191681526020016001820154815260200160028201548152602001600382015481526020016004820154815250509050919050565b611d36826126c1565b600f82604051611d469190614543565b908152602001604051809103902060010154816080018181525050600f82604051611d719190614543565b9081526020016040518091039020600201548160a0018181525050600f82604051611d9c9190614543565b9081526020016040518091039020600301548160c001818152505080600f83604051611dc89190614543565b908152602001604051809103902060008201518160000160006101000a81548161ffff021916908360f01c021790555060208201518160000160026101000a81548161ffff021916908360f01c021790555060408201518160000160046101000a81548161ffff021916908360f01c021790555060608201518160000160066101000a81548161ffff021916908360f01c02179055506080820151816001015560a0820151816002015560c0820151816003015560e082015181600401559050505050565b606082600e6000600f83604051611ea49190614543565b908152602001604051809103902060040154815260200190815260200160002060010160010160029054906101000a900460ff168015611f0557506000601082604051611ef19190614543565b908152602001604051809103902080549050115b15611f4757806040517f1a35a449000000000000000000000000000000000000000000000000000000008152600401611f3e91906145a4565b60405180910390fd5b825167ffffffffffffffff811115611f6257611f61613249565b5b604051908082528060200260200182016040528015611f905781602001602082028036833780820191505090505b50915060005b8351811015611fef57611fc385858381518110611fb657611fb5614905565b5b6020026020010151612758565b838281518110611fd657611fd5614905565b5b6020026020010181815250508080600101915050611f96565b505092915050565b6010816040516120079190614543565b908152602001604051809103902060006120219190613078565b6000600f826040516120339190614543565b9081526020016040518091039020600101819055506120518161293b565b7f055b00e14f3647ce9af043f85e942a4b8169374d43992a7044ad50a8a7e1845a8160405161208091906145a4565b60405180910390a150565b600080600084815260200190815260200160002060000160008373ffffffffffffffffffffffffffffffffffffffff1673ffffffffffffffffffffffffffffffffffffffff16815260200190815260200160002060009054906101000a900460ff16905092915050565b600061210083610703565b905081600080858152602001908152602001600020600101819055508181847fbd79b86ffe0ab8e8776151514217cd7cacd52c909f66475c3af44e129f0b00ff60405160405180910390a4505050565b80600e60008060001b815260200190815260200160002060008201518160000160006101000a81548161ffff021916908361ffff1602179055506020820151816001016000820151816000015560208201518160010160006101000a81548160ff02191690831515021790555060408201518160010160016101000a81548160ff02191690831515021790555060608201518160010160026101000a81548160ff02191690831515021790555060808201518160010160036101000a81548160ff021916908315150217905550505060408201518160030160008201518160000160006101000a81548161ffff021916908361ffff16021790555060208201518160010190816122609190614833565b5050506060820151816005015590505050565b600060405160200161228490614980565b60405160208183030381529060405280519060200120826040516020016122ab91906145a4565b60405160208183030381529060405280519060200120036122cf57600190506122d4565b600090505b919050565b6000808260088111156122ef576122ee614477565b5b60ff166001901b905060006003600881111561230e5761230d614477565b5b84600881111561232157612320614477565b5b148061235157506004600881111561233c5761233b614477565b5b84600881111561234f5761234e614477565b5b145b8061238057506005600881111561236b5761236a614477565b5b84600881111561237e5761237d614477565b5b145b905061238f6000801b3361105e565b1561239f576001925050506123ea565b600080836123b86123af89611b68565b60e001516123f0565b600001511661ffff1614159050816123d057806123e4565b6123da8633611985565b80156123e35750805b5b93505050505b92915050565b6123f8613099565b600e60008381526020019081526020016000206040518060800160405290816000820160009054906101000a900461ffff1661ffff1661ffff168152602001600182016040518060a0016040529081600082015481526020016001820160009054906101000a900460ff161515151581526020016001820160019054906101000a900460ff161515151581526020016001820160029054906101000a900460ff161515151581526020016001820160039054906101000a900460ff1615151515815250508152602001600382016040518060400160405290816000820160009054906101000a900461ffff1661ffff1661ffff16815260200160018201805461250090614660565b80601f016020809104026020016040519081016040528092919081815260200182805461252c90614660565b80156125795780601f1061254e57610100808354040283529160200191612579565b820191906000526020600020905b81548152906001019060200180831161255c57829003601f168201915b50505050508152505081526020016005820154815250509050919050565b60606010826040516125a99190614543565b908152602001604051809103902080548060200260200160405190810160405280929190818152602001828054801561260157602002820191906000526020600020905b8154815260200190600101908083116125ed575b50505050509050919050565b612617828261105e565b61265a5780826040517fe2517d3f0000000000000000000000000000000000000000000000000000000081526004016126519291906144de565b60405180910390fd5b5050565b60008282604051602001612673929190614ab1565b60405160208183030381529060405280519060200120905092915050565b6000816040516020016126a49190614b47565b604051602081830303815290604052805190602001209050919050565b42600f826040516126d29190614543565b908152602001604051809103902060030181905550600f816040516126f79190614543565b9081526020016040518091039020600201600081548092919061271990614b98565b91905055507f1c306e70c05992619e2128ad1ef88df75f36c9476282e59f51401b2abaa42e4e8160405161274d91906145a4565b60405180910390a150565b60006127626113c8565b73ffffffffffffffffffffffffffffffffffffffff1663e8a4c04e83600001516040518263ffffffff1660e01b815260040161279e9190614c35565b602060405180830381865afa1580156127bb573d6000803e3d6000fd5b505050506040513d601f19601f820116820180604052508101906127df9190614c6c565b9050600d60009054906101000a900473ffffffffffffffffffffffffffffffffffffffff1673ffffffffffffffffffffffffffffffffffffffff1663f6e20077600d60009054906101000a900473ffffffffffffffffffffffffffffffffffffffff1673ffffffffffffffffffffffffffffffffffffffff1663fd45d702846040518263ffffffff1660e01b815260040161287a9190613be3565b602060405180830381865afa158015612897573d6000803e3d6000fd5b505050506040513d601f19601f820116820180604052508101906128bb9190614cae565b846000015185604001516040518463ffffffff1660e01b81526004016128e2929190614cdb565b60206040518083038185885af1158015612900573d6000803e3d6000fd5b50505050506040513d601f19601f820116820180604052508101906129259190614c6c565b5061293583828460200151612b18565b92915050565b612ade816008604051806101000160405290816000820160009054906101000a900460f01b7dffffffffffffffffffffffffffffffffffffffffffffffffffffffffffff19167dffffffffffffffffffffffffffffffffffffffffffffffffffffffffffff191681526020016000820160029054906101000a900460f01b7dffffffffffffffffffffffffffffffffffffffffffffffffffffffffffff19167dffffffffffffffffffffffffffffffffffffffffffffffffffffffffffff191681526020016000820160049054906101000a900460f01b7dffffffffffffffffffffffffffffffffffffffffffffffffffffffffffff19167dffffffffffffffffffffffffffffffffffffffffffffffffffffffffffff191681526020016000820160069054906101000a900460f01b7dffffffffffffffffffffffffffffffffffffffffffffffffffffffffffff19167dffffffffffffffffffffffffffffffffffffffffffffffffffffffffffff19168152602001600182015481526020016002820154815260200160038201548152602001600482015481525050611d2d565b7f510fb78f495511d68f630cfabc06d8a58d5aeb7bc63f3538b9cd46923aa23e5d81604051612b0d91906145a4565b60405180910390a150565b601083604051612b289190614543565b908152602001604051809103902080549050811115612b7f577f362a3902d776489b8c251f64f41d10ff3be4a9280984edf516d21e4a6e10dbda8382604051612b72929190614d1a565b60405180910390a1612ec1565b601083604051612b8f9190614543565b9081526020016040518091039020805490508103612ce957601083604051612bb79190614543565b9081526020016040518091039020829080600181540180825580915050600190039060005260206000200160009091909190915055612bf46113c8565b73ffffffffffffffffffffffffffffffffffffffff16632be681f5836040518263ffffffff1660e01b8152600401612c2c9190613be3565b602060405180830381865afa158015612c49573d6000803e3d6000fd5b505050506040513d601f19601f82011682018060405250810190612c6d9190614cae565b600f84604051612c7d9190614543565b90815260200160405180910390206001016000828254612c9d9190614d4a565b9250508190555060008103612ce4577f688cfefb012ebddc451bd5077139509d5fbfdfc92c33cba16d7e76f16c2f5da883604051612cdb91906145a4565b60405180910390a15b612ec0565b612cf16113c8565b73ffffffffffffffffffffffffffffffffffffffff16632be681f5836040518263ffffffff1660e01b8152600401612d299190613be3565b602060405180830381865afa158015612d46573d6000803e3d6000fd5b505050506040513d601f19601f82011682018060405250810190612d6a9190614cae565b612d726113c8565b73ffffffffffffffffffffffffffffffffffffffff16632be681f5601086604051612d9d9190614543565b90815260200160405180910390208481548110612dbd57612dbc614905565b5b90600052602060002001546040518263ffffffff1660e01b8152600401612de49190613be3565b602060405180830381865afa158015612e01573d6000803e3d6000fd5b505050506040513d601f19601f82011682018060405250810190612e259190614cae565b600f85604051612e359190614543565b908152602001604051809103902060010154612e519190614d7e565b612e5b9190614d4a565b600f84604051612e6b9190614543565b90815260200160405180910390206001018190555081601084604051612e919190614543565b90815260200160405180910390208281548110612eb157612eb0614905565b5b90600052602060002001819055505b5b612eca836126c1565b7fd9104dbb62c9778e68f07361617c0e7c290633d8fc9d4335dd0710803633b93b8382604051612efb929190614d1a565b60405180910390a1505050565b6040518060400160405280612f1b6130d4565b8152602001600061ffff1681525090565b6040518060400160405280612f3f612f4c565b8152602001606081525090565b6040518060800160405280612f5f6130d4565b8152602001612f6c613099565b8152602001612f79612fac565b8152602001600080191681525090565b6040518060400160405280612f9c612f4c565b8152602001600080191681525090565b60405180610100016040528060007dffffffffffffffffffffffffffffffffffffffffffffffffffffffffffff1916815260200160007dffffffffffffffffffffffffffffffffffffffffffffffffffffffffffff1916815260200160007dffffffffffffffffffffffffffffffffffffffffffffffffffffffffffff1916815260200160007dffffffffffffffffffffffffffffffffffffffffffffffffffffffffffff19168152602001600081526020016000815260200160008152602001600080191681525090565b508054600082559060005260206000209081019061309691906130f2565b50565b6040518060800160405280600061ffff1681526020016130b761310f565b81526020016130c4613146565b8152602001600080191681525090565b604051806040016040528060608152602001600061ffff1681525090565b5b8082111561310b5760008160009055506001016130f3565b5090565b6040518060a00160405280600081526020016000151581526020016000151581526020016000151581526020016000151581525090565b6040518060400160405280600061ffff168152602001606081525090565b6000604051905090565b600080fd5b600080fd5b60007fffffffff0000000000000000000000000000000000000000000000000000000082169050919050565b6131ad81613178565b81146131b857600080fd5b50565b6000813590506131ca816131a4565b92915050565b6000602082840312156131e6576131e561316e565b5b60006131f4848285016131bb565b91505092915050565b60008115159050919050565b613212816131fd565b82525050565b600060208201905061322d6000830184613209565b92915050565b600080fd5b6000601f19601f8301169050919050565b7f4e487b7100000000000000000000000000000000000000000000000000000000600052604160045260246000fd5b61328182613238565b810181811067ffffffffffffffff821117156132a05761329f613249565b5b80604052505050565b60006132b3613164565b90506132bf8282613278565b919050565b600080fd5b600080fd5b600080fd5b600067ffffffffffffffff8211156132ee576132ed613249565b5b6132f782613238565b9050602081019050919050565b82818337600083830152505050565b6000613326613321846132d3565b6132a9565b905082815260208101848484011115613342576133416132ce565b5b61334d848285613304565b509392505050565b600082601f83011261336a576133696132c9565b5b813561337a848260208601613313565b91505092915050565b6009811061339057600080fd5b50565b6000813590506133a281613383565b92915050565b6000606082840312156133be576133bd613233565b5b6133c860606132a9565b9050600082013567ffffffffffffffff8111156133e8576133e76132c4565b5b6133f484828501613355565b600083015250602082013567ffffffffffffffff811115613418576134176132c4565b5b61342484828501613355565b602083015250604061343884828501613393565b60408301525092915050565b60006020828403121561345a5761345961316e565b5b600082013567ffffffffffffffff81111561347857613477613173565b5b613484848285016133a8565b91505092915050565b600081519050919050565b600082825260208201905092915050565b60005b838110156134c75780820151818401526020810190506134ac565b60008484015250505050565b60006134de8261348d565b6134e88185613498565b93506134f88185602086016134a9565b61350181613238565b840191505092915050565b600061ffff82169050919050565b6135238161350c565b82525050565b6000604083016000830151848203600086015261354682826134d3565b915050602083015161355b602086018261351a565b508091505092915050565b600060408301600083015184820360008601526135838282613529565b9150506020830151613598602086018261351a565b508091505092915050565b600060208201905081810360008301526135bd8184613566565b905092915050565b6000819050919050565b6135d8816135c5565b81146135e357600080fd5b50565b6000813590506135f5816135cf565b92915050565b6000819050919050565b61360e816135fb565b811461361957600080fd5b50565b60008135905061362b81613605565b92915050565b60006060828403121561364757613646613233565b5b61365160606132a9565b9050600082013567ffffffffffffffff811115613671576136706132c4565b5b61367d848285016133a8565b6000830152506020613691848285016135e6565b60208301525060406136a58482850161361c565b60408301525092915050565b6000602082840312156136c7576136c661316e565b5b600082013567ffffffffffffffff8111156136e5576136e4613173565b5b6136f184828501613631565b91505092915050565b613703816135c5565b82525050565b613712816131fd565b82525050565b60a08201600082015161372e60008501826136fa565b5060208201516137416020850182613709565b5060408201516137546040850182613709565b5060608201516137676060850182613709565b50608082015161377a6080850182613709565b50505050565b6000604083016000830151613798600086018261351a565b50602083015184820360208601526137b082826134d3565b9150508091505092915050565b6137c6816135fb565b82525050565b6000610100830160008301516137e5600086018261351a565b5060208301516137f86020860182613718565b50604083015184820360c08601526138108282613780565b915050606083015161382560e08601826137bd565b508091505092915050565b60007fffff00000000000000000000000000000000000000000000000000000000000082169050919050565b61386581613830565b82525050565b61010082016000820151613882600085018261385c565b506020820151613895602085018261385c565b5060408201516138a8604085018261385c565b5060608201516138bb606085018261385c565b5060808201516138ce60808501826136fa565b5060a08201516138e160a08501826136fa565b5060c08201516138f460c08501826136fa565b5060e082015161390760e08501826137bd565b50505050565b600061016083016000830151848203600086015261392b8282613529565b9150506020830151848203602086015261394582826137cc565b915050604083015161395a604086018261386b565b50606083015161396e6101408601826137bd565b508091505092915050565b600081519050919050565b600082825260208201905092915050565b6000819050602082019050919050565b60006139b183836137bd565b60208301905092915050565b6000602082019050919050565b60006139d582613979565b6139df8185613984565b93506139ea83613995565b8060005b83811015613a1b578151613a0288826139a5565b9750613a0d836139bd565b9250506001810190506139ee565b5085935050505092915050565b60006040830160008301518482036000860152613a45828261390d565b91505060208301518482036020860152613a5f82826139ca565b9150508091505092915050565b60006020820190508181036000830152613a868184613a28565b905092915050565b600073ffffffffffffffffffffffffffffffffffffffff82169050919050565b6000613ab982613a8e565b9050919050565b613ac981613aae565b8114613ad457600080fd5b50565b600081359050613ae681613ac0565b92915050565b600060208284031215613b0257613b0161316e565b5b6000613b1084828501613ad7565b91505092915050565b6000610160830160008301518482036000860152613b378282613529565b91505060208301518482036020860152613b5182826137cc565b9150506040830151613b66604086018261386b565b506060830151613b7a6101408601826137bd565b508091505092915050565b60006020820190508181036000830152613b9f8184613b19565b905092915050565b600060208284031215613bbd57613bbc61316e565b5b6000613bcb8482850161361c565b91505092915050565b613bdd816135fb565b82525050565b6000602082019050613bf86000830184613bd4565b92915050565b60008060408385031215613c1557613c1461316e565b5b6000613c238582860161361c565b9250506020613c3485828601613ad7565b9150509250929050565b613c478161350c565b8114613c5257600080fd5b50565b600081359050613c6481613c3e565b92915050565b613c73816131fd565b8114613c7e57600080fd5b50565b600081359050613c9081613c6a565b92915050565b600060a08284031215613cac57613cab613233565b5b613cb660a06132a9565b90506000613cc6848285016135e6565b6000830152506020613cda84828501613c81565b6020830152506040613cee84828501613c81565b6040830152506060613d0284828501613c81565b6060830152506080613d1684828501613c81565b60808301525092915050565b600060408284031215613d3857613d37613233565b5b613d4260406132a9565b90506000613d5284828501613c55565b600083015250602082013567ffffffffffffffff811115613d7657613d756132c4565b5b613d8284828501613355565b60208301525092915050565b60006101008284031215613da557613da4613233565b5b613daf60806132a9565b90506000613dbf84828501613c55565b6000830152506020613dd384828501613c96565b60208301525060c082013567ffffffffffffffff811115613df757613df66132c4565b5b613e0384828501613d22565b60408301525060e0613e178482850161361c565b60608301525092915050565b600060408284031215613e3957613e38613233565b5b613e4360406132a9565b9050600082013567ffffffffffffffff811115613e6357613e626132c4565b5b613e6f84828501613631565b600083015250602082013567ffffffffffffffff811115613e9357613e926132c4565b5b613e9f84828501613d8e565b60208301525092915050565b600060208284031215613ec157613ec061316e565b5b600082013567ffffffffffffffff811115613edf57613ede613173565b5b613eeb84828501613e23565b91505092915050565b60006040830160008301518482036000860152613f11828261390d565b9150506020830151613f2660208601826137bd565b508091505092915050565b60006020820190508181036000830152613f4b8184613ef4565b905092915050565b600067ffffffffffffffff821115613f6e57613f6d613249565b5b602082029050602081019050919050565b600080fd5b600067ffffffffffffffff821115613f9f57613f9e613249565b5b613fa882613238565b9050602081019050919050565b6000613fc8613fc384613f84565b6132a9565b905082815260208101848484011115613fe457613fe36132ce565b5b613fef848285613304565b509392505050565b600082601f83011261400c5761400b6132c9565b5b813561401c848260208601613fb5565b91505092915050565b60006060828403121561403b5761403a613233565b5b61404560606132a9565b9050600082013567ffffffffffffffff811115614065576140646132c4565b5b61407184828501613ff7565b6000830152506020614085848285016135e6565b602083015250604061409984828501613ad7565b60408301525092915050565b60006140b86140b384613f53565b6132a9565b905080838252602082019050602084028301858111156140db576140da613f7f565b5b835b8181101561412257803567ffffffffffffffff811115614100576140ff6132c9565b5b80860161410d8982614025565b855260208501945050506020810190506140dd565b5050509392505050565b600082601f830112614141576141406132c9565b5b81356141518482602086016140a5565b91505092915050565b6000604082840312156141705761416f613233565b5b61417a60406132a9565b9050600082013567ffffffffffffffff81111561419a576141996132c4565b5b6141a684828501613631565b600083015250602082013567ffffffffffffffff8111156141ca576141c96132c4565b5b6141d68482850161412c565b60208301525092915050565b6000602082840312156141f8576141f761316e565b5b600082013567ffffffffffffffff81111561421657614215613173565b5b6142228482850161415a565b91505092915050565b61423481613830565b811461423f57600080fd5b50565b6000813590506142518161422b565b92915050565b600060c0828403121561426d5761426c613233565b5b61427760c06132a9565b9050600082013567ffffffffffffffff811115614297576142966132c4565b5b6142a384828501613631565b60008301525060206142b784828501614242565b60208301525060406142cb84828501614242565b60408301525060606142df84828501614242565b60608301525060806142f384828501614242565b60808301525060a082013567ffffffffffffffff811115614317576143166132c4565b5b6143238482850161412c565b60a08301525092915050565b6000602082840312156143455761434461316e565b5b600082013567ffffffffffffffff81111561436357614362613173565b5b61436f84828501614257565b91505092915050565b6000819050919050565b600061439d61439861439384613a8e565b614378565b613a8e565b9050919050565b60006143af82614382565b9050919050565b60006143c1826143a4565b9050919050565b6143d1816143b6565b82525050565b60006020820190506143ec60008301846143c8565b92915050565b60006143fd826143a4565b9050919050565b61440d816143f2565b82525050565b60006020820190506144286000830184614404565b92915050565b6000602082840312156144445761444361316e565b5b600082013567ffffffffffffffff81111561446257614461613173565b5b61446e84828501613d8e565b91505092915050565b7f4e487b7100000000000000000000000000000000000000000000000000000000600052602160045260246000fd5b60006040820190506144bb6000830185613bd4565b6144c86020830184613bd4565b9392505050565b6144d881613aae565b82525050565b60006040820190506144f360008301856144cf565b6145006020830184613bd4565b9392505050565b600081905092915050565b600061451d8261348d565b6145278185614507565b93506145378185602086016134a9565b80840191505092915050565b600061454f8284614512565b915081905092915050565b600082825260208201905092915050565b60006145768261348d565b614580818561455a565b93506145908185602086016134a9565b61459981613238565b840191505092915050565b600060208201905081810360008301526145be818461456b565b905092915050565b60006145d182613aae565b9050919050565b6145e1816145c6565b81146145ec57600080fd5b50565b6000815190506145fe816145d8565b92915050565b60006020828403121561461a5761461961316e565b5b6000614628848285016145ef565b91505092915050565b7f4e487b7100000000000000000000000000000000000000000000000000000000600052602260045260246000fd5b6000600282049050600182168061467857607f821691505b60208210810361468b5761468a614631565b5b50919050565b60008190508160005260206000209050919050565b60006020601f8301049050919050565b600082821b905092915050565b6000600883026146f37fffffffffffffffffffffffffffffffffffffffffffffffffffffffffffffffff826146b6565b6146fd86836146b6565b95508019841693508086168417925050509392505050565b600061473061472b614726846135c5565b614378565b6135c5565b9050919050565b6000819050919050565b61474a83614715565b61475e61475682614737565b8484546146c3565b825550505050565b600090565b614773614766565b61477e818484614741565b505050565b5b818110156147a25761479760008261476b565b600181019050614784565b5050565b601f8211156147e7576147b881614691565b6147c1846146a6565b810160208510156147d0578190505b6147e46147dc856146a6565b830182614783565b50505b505050565b600082821c905092915050565b600061480a600019846008026147ec565b1980831691505092915050565b600061482383836147f9565b9150826002028217905092915050565b61483c8261348d565b67ffffffffffffffff81111561485557614854613249565b5b61485f8254614660565b61486a8282856147a6565b600060209050601f83116001811461489d576000841561488b578287015190505b6148958582614817565b8655506148fd565b601f1984166148ab86614691565b60005b828110156148d3578489015182556001820191506020850194506020810190506148ae565b868310156148f057848901516148ec601f8916826147f9565b8355505b6001600288020188555050505b505050505050565b7f4e487b7100000000000000000000000000000000000000000000000000000000600052603260045260246000fd5b7f575454502f332e30000000000000000000000000000000000000000000000000600082015250565b600061496a60088361455a565b915061497582614934565b602082019050919050565b600060208201905081810360008301526149998161495d565b9050919050565b610100820160008201516149b7600085018261385c565b5060208201516149ca602085018261385c565b5060408201516149dd604085018261385c565b5060608201516149f0606085018261385c565b506080820151614a0360808501826136fa565b5060a0820151614a1660a08501826136fa565b5060c0820151614a2960c08501826136fa565b5060e0820151614a3c60e08501826137bd565b50505050565b600082825260208201905092915050565b6000614a5e82613979565b614a688185614a42565b9350614a7383613995565b8060005b83811015614aa4578151614a8b88826139a5565b9750614a96836139bd565b925050600181019050614a77565b5085935050505092915050565b600061012082019050614ac760008301856149a0565b818103610100830152614ada8184614a53565b90509392505050565b600061010083016000830151614afc600086018261351a565b506020830151614b0f6020860182613718565b50604083015184820360c0860152614b278282613780565b9150506060830151614b3c60e08601826137bd565b508091505092915050565b60006020820190508181036000830152614b618184614ae3565b905092915050565b7f4e487b7100000000000000000000000000000000000000000000000000000000600052601160045260246000fd5b6000614ba3826135c5565b91507fffffffffffffffffffffffffffffffffffffffffffffffffffffffffffffffff8203614bd557614bd4614b69565b5b600182019050919050565b600081519050919050565b600082825260208201905092915050565b6000614c0782614be0565b614c118185614beb565b9350614c218185602086016134a9565b614c2a81613238565b840191505092915050565b60006020820190508181036000830152614c4f8184614bfc565b905092915050565b600081519050614c6681613605565b92915050565b600060208284031215614c8257614c8161316e565b5b6000614c9084828501614c57565b91505092915050565b600081519050614ca8816135cf565b92915050565b600060208284031215614cc457614cc361316e565b5b6000614cd284828501614c99565b91505092915050565b60006040820190508181036000830152614cf58185614bfc565b9050614d0460208301846144cf565b9392505050565b614d14816135c5565b82525050565b60006040820190508181036000830152614d34818561456b565b9050614d436020830184614d0b565b9392505050565b6000614d55826135c5565b9150614d60836135c5565b9250828201905080821115614d7857614d77614b69565b5b92915050565b6000614d89826135c5565b9150614d94836135c5565b9250828203905081811115614dac57614dab614b69565b5b9291505056fea2646970667358221220d90e7b4ae0cb944cd16d616a5e7e4163300aae9cdd060f307a445b6ae957806264736f6c634300081c0033",
  "linkReferences": {},
  "deployedLinkReferences": {}
}