{
  "_format": "hh-sol-artifact-1",
  "contractName": "WTTPGatewayV3",
  "sourceName": "contracts/WTTPGateway.sol",
  "abi": [
    {
      "inputs": [
        {
          "internalType": "address",
          "name": "_site",
          "type": "address"
        },
        {
          "components": [
            {
              "components": [
                {
                  "components": [
                    {
                      "internalType": "string",
                      "name": "protocol",
                      "type": "string"
                    },
                    {
                      "internalType": "string",
                      "name": "path",
                      "type": "string"
                    },
                    {
                      "internalType": "enum Method",
                      "name": "method",
                      "type": "uint8"
                    }
                  ],
                  "internalType": "struct RequestLine",
                  "name": "requestLine",
                  "type": "tuple"
                },
                {
                  "internalType": "uint256",
                  "name": "ifModifiedSince",
                  "type": "uint256"
                },
                {
                  "internalType": "bytes32",
                  "name": "ifNoneMatch",
                  "type": "bytes32"
                }
              ],
              "internalType": "struct HEADRequest",
              "name": "head",
              "type": "tuple"
            },
            {
              "components": [
                {
                  "internalType": "int256",
                  "name": "start",
                  "type": "int256"
                },
                {
                  "internalType": "int256",
                  "name": "end",
                  "type": "int256"
                }
              ],
              "internalType": "struct Range",
              "name": "rangeBytes",
              "type": "tuple"
            }
          ],
          "internalType": "struct GETRequest",
          "name": "_getRequest",
          "type": "tuple"
        }
      ],
      "name": "GET",
      "outputs": [
        {
          "components": [
            {
              "components": [
                {
                  "components": [
                    {
                      "internalType": "string",
                      "name": "protocol",
                      "type": "string"
                    },
                    {
                      "internalType": "uint16",
                      "name": "code",
                      "type": "uint16"
                    }
                  ],
                  "internalType": "struct ResponseLine",
                  "name": "responseLine",
                  "type": "tuple"
                },
                {
                  "components": [
                    {
                      "internalType": "uint16",
                      "name": "methods",
                      "type": "uint16"
                    },
                    {
                      "components": [
                        {
                          "internalType": "uint256",
                          "name": "maxAge",
                          "type": "uint256"
                        },
                        {
                          "internalType": "bool",
                          "name": "noStore",
                          "type": "bool"
                        },
                        {
                          "internalType": "bool",
                          "name": "noCache",
                          "type": "bool"
                        },
                        {
                          "internalType": "bool",
                          "name": "immutableFlag",
                          "type": "bool"
                        },
                        {
                          "internalType": "bool",
                          "name": "publicFlag",
                          "type": "bool"
                        }
                      ],
                      "internalType": "struct CacheControl",
                      "name": "cache",
                      "type": "tuple"
                    },
                    {
                      "components": [
                        {
                          "internalType": "uint16",
                          "name": "code",
                          "type": "uint16"
                        },
                        {
                          "internalType": "string",
                          "name": "location",
                          "type": "string"
                        }
                      ],
                      "internalType": "struct Redirect",
                      "name": "redirect",
                      "type": "tuple"
                    },
                    {
                      "internalType": "bytes32",
                      "name": "resourceAdmin",
                      "type": "bytes32"
                    }
                  ],
                  "internalType": "struct HeaderInfo",
                  "name": "headerInfo",
                  "type": "tuple"
                },
                {
                  "components": [
                    {
                      "internalType": "bytes2",
                      "name": "mimeType",
                      "type": "bytes2"
                    },
                    {
                      "internalType": "bytes2",
                      "name": "charset",
                      "type": "bytes2"
                    },
                    {
                      "internalType": "bytes2",
                      "name": "encoding",
                      "type": "bytes2"
                    },
                    {
                      "internalType": "bytes2",
                      "name": "language",
                      "type": "bytes2"
                    },
                    {
                      "internalType": "uint256",
                      "name": "size",
                      "type": "uint256"
                    },
                    {
                      "internalType": "uint256",
                      "name": "version",
                      "type": "uint256"
                    },
                    {
                      "internalType": "uint256",
                      "name": "lastModified",
                      "type": "uint256"
                    },
                    {
                      "internalType": "bytes32",
                      "name": "header",
                      "type": "bytes32"
                    }
                  ],
                  "internalType": "struct ResourceMetadata",
                  "name": "metadata",
                  "type": "tuple"
                },
                {
                  "internalType": "bytes32",
                  "name": "etag",
                  "type": "bytes32"
                }
              ],
              "internalType": "struct HEADResponse",
              "name": "head",
              "type": "tuple"
            },
            {
              "components": [
                {
                  "internalType": "int256",
                  "name": "start",
                  "type": "int256"
                },
                {
                  "internalType": "int256",
                  "name": "end",
                  "type": "int256"
                }
              ],
              "internalType": "struct Range",
              "name": "bytesRange",
              "type": "tuple"
            },
            {
              "internalType": "bytes",
              "name": "data",
              "type": "bytes"
            }
          ],
          "internalType": "struct GETResponse",
          "name": "_getResponse",
          "type": "tuple"
        }
      ],
      "stateMutability": "view",
      "type": "function"
    },
    {
      "inputs": [
        {
          "internalType": "address",
          "name": "_site",
          "type": "address"
        },
        {
          "components": [
            {
              "components": [
                {
                  "internalType": "string",
                  "name": "protocol",
                  "type": "string"
                },
                {
                  "internalType": "string",
                  "name": "path",
                  "type": "string"
                },
                {
                  "internalType": "enum Method",
                  "name": "method",
                  "type": "uint8"
                }
              ],
              "internalType": "struct RequestLine",
              "name": "requestLine",
              "type": "tuple"
            },
            {
              "internalType": "uint256",
              "name": "ifModifiedSince",
              "type": "uint256"
            },
            {
              "internalType": "bytes32",
              "name": "ifNoneMatch",
              "type": "bytes32"
            }
          ],
          "internalType": "struct HEADRequest",
          "name": "_headRequest",
          "type": "tuple"
        }
      ],
      "name": "HEAD",
      "outputs": [
        {
          "components": [
            {
              "components": [
                {
                  "internalType": "string",
                  "name": "protocol",
                  "type": "string"
                },
                {
                  "internalType": "uint16",
                  "name": "code",
                  "type": "uint16"
                }
              ],
              "internalType": "struct ResponseLine",
              "name": "responseLine",
              "type": "tuple"
            },
            {
              "components": [
                {
                  "internalType": "uint16",
                  "name": "methods",
                  "type": "uint16"
                },
                {
                  "components": [
                    {
                      "internalType": "uint256",
                      "name": "maxAge",
                      "type": "uint256"
                    },
                    {
                      "internalType": "bool",
                      "name": "noStore",
                      "type": "bool"
                    },
                    {
                      "internalType": "bool",
                      "name": "noCache",
                      "type": "bool"
                    },
                    {
                      "internalType": "bool",
                      "name": "immutableFlag",
                      "type": "bool"
                    },
                    {
                      "internalType": "bool",
                      "name": "publicFlag",
                      "type": "bool"
                    }
                  ],
                  "internalType": "struct CacheControl",
                  "name": "cache",
                  "type": "tuple"
                },
                {
                  "components": [
                    {
                      "internalType": "uint16",
                      "name": "code",
                      "type": "uint16"
                    },
                    {
                      "internalType": "string",
                      "name": "location",
                      "type": "string"
                    }
                  ],
                  "internalType": "struct Redirect",
                  "name": "redirect",
                  "type": "tuple"
                },
                {
                  "internalType": "bytes32",
                  "name": "resourceAdmin",
                  "type": "bytes32"
                }
              ],
              "internalType": "struct HeaderInfo",
              "name": "headerInfo",
              "type": "tuple"
            },
            {
              "components": [
                {
                  "internalType": "bytes2",
                  "name": "mimeType",
                  "type": "bytes2"
                },
                {
                  "internalType": "bytes2",
                  "name": "charset",
                  "type": "bytes2"
                },
                {
                  "internalType": "bytes2",
                  "name": "encoding",
                  "type": "bytes2"
                },
                {
                  "internalType": "bytes2",
                  "name": "language",
                  "type": "bytes2"
                },
                {
                  "internalType": "uint256",
                  "name": "size",
                  "type": "uint256"
                },
                {
                  "internalType": "uint256",
                  "name": "version",
                  "type": "uint256"
                },
                {
                  "internalType": "uint256",
                  "name": "lastModified",
                  "type": "uint256"
                },
                {
                  "internalType": "bytes32",
                  "name": "header",
                  "type": "bytes32"
                }
              ],
              "internalType": "struct ResourceMetadata",
              "name": "metadata",
              "type": "tuple"
            },
            {
              "internalType": "bytes32",
              "name": "etag",
              "type": "bytes32"
            }
          ],
          "internalType": "struct HEADResponse",
          "name": "_headResponse",
          "type": "tuple"
        }
      ],
      "stateMutability": "view",
      "type": "function"
    },
    {
      "inputs": [
        {
          "internalType": "address",
          "name": "_site",
          "type": "address"
        },
        {
          "components": [
            {
              "components": [
                {
                  "components": [
                    {
                      "internalType": "string",
                      "name": "protocol",
                      "type": "string"
                    },
                    {
                      "internalType": "string",
                      "name": "path",
                      "type": "string"
                    },
                    {
                      "internalType": "enum Method",
                      "name": "method",
                      "type": "uint8"
                    }
                  ],
                  "internalType": "struct RequestLine",
                  "name": "requestLine",
                  "type": "tuple"
                },
                {
                  "internalType": "uint256",
                  "name": "ifModifiedSince",
                  "type": "uint256"
                },
                {
                  "internalType": "bytes32",
                  "name": "ifNoneMatch",
                  "type": "bytes32"
                }
              ],
              "internalType": "struct HEADRequest",
              "name": "head",
              "type": "tuple"
            },
            {
              "components": [
                {
                  "internalType": "int256",
                  "name": "start",
                  "type": "int256"
                },
                {
                  "internalType": "int256",
                  "name": "end",
                  "type": "int256"
                }
              ],
              "internalType": "struct Range",
              "name": "rangeChunks",
              "type": "tuple"
            }
          ],
          "internalType": "struct LOCATERequest",
          "name": "_locateRequest",
          "type": "tuple"
        }
      ],
      "name": "LOCATE",
      "outputs": [
        {
          "components": [
            {
              "components": [
                {
                  "components": [
                    {
                      "internalType": "string",
                      "name": "protocol",
                      "type": "string"
                    },
                    {
                      "internalType": "uint16",
                      "name": "code",
                      "type": "uint16"
                    }
                  ],
                  "internalType": "struct ResponseLine",
                  "name": "responseLine",
                  "type": "tuple"
                },
                {
                  "components": [
                    {
                      "internalType": "uint16",
                      "name": "methods",
                      "type": "uint16"
                    },
                    {
                      "components": [
                        {
                          "internalType": "uint256",
                          "name": "maxAge",
                          "type": "uint256"
                        },
                        {
                          "internalType": "bool",
                          "name": "noStore",
                          "type": "bool"
                        },
                        {
                          "internalType": "bool",
                          "name": "noCache",
                          "type": "bool"
                        },
                        {
                          "internalType": "bool",
                          "name": "immutableFlag",
                          "type": "bool"
                        },
                        {
                          "internalType": "bool",
                          "name": "publicFlag",
                          "type": "bool"
                        }
                      ],
                      "internalType": "struct CacheControl",
                      "name": "cache",
                      "type": "tuple"
                    },
                    {
                      "components": [
                        {
                          "internalType": "uint16",
                          "name": "code",
                          "type": "uint16"
                        },
                        {
                          "internalType": "string",
                          "name": "location",
                          "type": "string"
                        }
                      ],
                      "internalType": "struct Redirect",
                      "name": "redirect",
                      "type": "tuple"
                    },
                    {
                      "internalType": "bytes32",
                      "name": "resourceAdmin",
                      "type": "bytes32"
                    }
                  ],
                  "internalType": "struct HeaderInfo",
                  "name": "headerInfo",
                  "type": "tuple"
                },
                {
                  "components": [
                    {
                      "internalType": "bytes2",
                      "name": "mimeType",
                      "type": "bytes2"
                    },
                    {
                      "internalType": "bytes2",
                      "name": "charset",
                      "type": "bytes2"
                    },
                    {
                      "internalType": "bytes2",
                      "name": "encoding",
                      "type": "bytes2"
                    },
                    {
                      "internalType": "bytes2",
                      "name": "language",
                      "type": "bytes2"
                    },
                    {
                      "internalType": "uint256",
                      "name": "size",
                      "type": "uint256"
                    },
                    {
                      "internalType": "uint256",
                      "name": "version",
                      "type": "uint256"
                    },
                    {
                      "internalType": "uint256",
                      "name": "lastModified",
                      "type": "uint256"
                    },
                    {
                      "internalType": "bytes32",
                      "name": "header",
                      "type": "bytes32"
                    }
                  ],
                  "internalType": "struct ResourceMetadata",
                  "name": "metadata",
                  "type": "tuple"
                },
                {
                  "internalType": "bytes32",
                  "name": "etag",
                  "type": "bytes32"
                }
              ],
              "internalType": "struct HEADResponse",
              "name": "head",
              "type": "tuple"
            },
            {
              "internalType": "bytes32[]",
              "name": "dataPoints",
              "type": "bytes32[]"
            }
          ],
          "internalType": "struct LOCATEResponse",
          "name": "_locateResponse",
          "type": "tuple"
        }
      ],
      "stateMutability": "view",
      "type": "function"
    },
    {
      "inputs": [
        {
          "internalType": "address",
          "name": "_site",
          "type": "address"
        },
        {
          "components": [
            {
              "internalType": "string",
              "name": "protocol",
              "type": "string"
            },
            {
              "internalType": "string",
              "name": "path",
              "type": "string"
            },
            {
              "internalType": "enum Method",
              "name": "method",
              "type": "uint8"
            }
          ],
          "internalType": "struct RequestLine",
          "name": "_optionsRequest",
          "type": "tuple"
        }
      ],
      "name": "OPTIONS",
      "outputs": [
        {
          "components": [
            {
              "components": [
                {
                  "internalType": "string",
                  "name": "protocol",
                  "type": "string"
                },
                {
                  "internalType": "uint16",
                  "name": "code",
                  "type": "uint16"
                }
              ],
              "internalType": "struct ResponseLine",
              "name": "responseLine",
              "type": "tuple"
            },
            {
              "internalType": "uint16",
              "name": "allow",
              "type": "uint16"
            }
          ],
          "internalType": "struct OPTIONSResponse",
          "name": "_optionsResponse",
          "type": "tuple"
        }
      ],
      "stateMutability": "view",
      "type": "function"
    }
  ],
  "bytecode": "0x6080604052348015600f57600080fd5b50612b928061001f6000396000f3fe608060405234801561001057600080fd5b506004361061004c5760003560e01c80631adf36cc14610051578063d0d606d114610081578063dbc9e667146100b1578063ff8a0d68146100e1575b600080fd5b61006b60048036038101906100669190611637565b610111565b60405161007891906119f7565b60405180910390f35b61009b60048036038101906100969190611b0b565b6101a0565b6040516100a89190611cc6565b60405180910390f35b6100cb60048036038101906100c69190611ce8565b61030c565b6040516100d89190611d81565b60405180910390f35b6100fb60048036038101906100f69190611e0f565b61039b565b6040516101089190611f55565b60405180910390f35b61011961104a565b8273ffffffffffffffffffffffffffffffffffffffff16631ca6b067836040518263ffffffff1660e01b81526004016101529190612095565b600060405180830381865afa15801561016f573d6000803e3d6000fd5b505050506040513d6000823e3d601f19601f82011682018060405250810190610198919061254a565b905092915050565b6101a8611087565b8273ffffffffffffffffffffffffffffffffffffffff1663b3c1f66683600001516040518263ffffffff1660e01b81526004016101e59190612095565b600060405180830381865afa158015610202573d6000803e3d6000fd5b505050506040513d6000823e3d601f19601f8201168201806040525081019061022b91906126e3565b90506000806000610245856020015185602001515161077f565b9250925092508015610277576101a08460000151600001516020019061ffff16908161ffff1681525050505050610306565b61029a60405180604001604052808581526020018481525085602001515161087f565b6102e45760006102b2878660200151868660016108ae565b90508060000151856020018190525060ce8560000151600001516020019061ffff16908161ffff168152505050610302565b60c88460000151600001516020019061ffff16908161ffff16815250505b5050505b92915050565b6103146110a7565b8273ffffffffffffffffffffffffffffffffffffffff166303ca5dad836040518263ffffffff1660e01b815260040161034d9190612783565b600060405180830381865afa15801561036a573d6000803e3d6000fd5b505050506040513d6000823e3d601f19601f820116820180604052508101906103939190612811565b905092915050565b6103a36110cb565b60008373ffffffffffffffffffffffffffffffffffffffff1663046d716084600001516040518263ffffffff1660e01b81526004016103e29190612095565b600060405180830381865afa1580156103ff573d6000803e3d6000fd5b505050506040513d6000823e3d601f19601f8201168201806040525081019061042891906126e3565b905060008060006104428785602001518860200151610e15565b925092509250801561048257836000015185600001819052506101a08560000151600001516020019061ffff16908161ffff168152505050505050610779565b6104ac6040518060400160405280858152602001848152508560000151604001516080015161087f565b6105035760006104c4888660200151868660006108ae565b9050846000015186600001819052508060200151866040018190525060ce8660000151600001516020019061ffff16908161ffff168152505050610774565b83600001518560000181905250836000015160000151602001518560000151600001516020019061ffff16908161ffff168152505060008773ffffffffffffffffffffffffffffffffffffffff1663ef4e06ec6040518163ffffffff1660e01b8152600401602060405180830381865afa158015610585573d6000803e3d6000fd5b505050506040513d601f19601f820116820180604052508101906105a99190612898565b9050600085600001516040015160800151905060008167ffffffffffffffff8111156105d8576105d7611350565b5b6040519080825280601f01601f19166020018201604052801561060a5781602001600182028036833780820191505090505b5090506000805b8860200151518110156107535760008573ffffffffffffffffffffffffffffffffffffffff166380435b648b602001518481518110610653576106526128c5565b5b60200260200101516040518263ffffffff1660e01b81526004016106779190612903565b600060405180830381865afa158015610694573d6000803e3d6000fd5b505050506040513d6000823e3d601f19601f820116820180604052508101906106bd91906129bf565b905060005b8151811015610744578181815181106106de576106dd6128c5565b5b602001015160f81c60f81b8585806106f590612a37565b965081518110610708576107076128c5565b5b60200101907effffffffffffffffffffffffffffffffffffffffffffffffffffffffffffff1916908160001a90535080806001019150506106c2565b50508080600101915050610611565b50828960000151604001516080018181525050818960400181905250505050505b505050505b92915050565b600080600080856000015112156107d55783856000015161079f90612a7f565b11156107b5576000806001925092509250610878565b84600001516107c390612a7f565b846107ce9190612ac7565b92506107dd565b846000015192505b60008560200151136108435760008560200151036107fd5783915061083e565b83856020015161080c90612a7f565b1115610822576000806001925092509250610878565b846020015161083090612a7f565b8461083b9190612ac7565b91505b61084b565b846020015191505b8183118061085857508382115b1561086d576000806001925092509250610878565b828260009250925092505b9250925092565b60008083600001511480156108a657506000836020015114806108a55750818360200151145b5b905092915050565b6108b66110f8565b81816040019060018111156108ce576108cd611f77565b5b908160018111156108e2576108e1611f77565b5b815250506000841480156108f65750845183145b1561091a578481600001819052506000816060019015159081151581525050610e0c565b600181606001901515908115158152505060018081111561093e5761093d611f77565b5b82600181111561095157610950611f77565b5b03610a1e57600084846109649190612ac7565b67ffffffffffffffff81111561097d5761097c611350565b5b6040519080825280602002602001820160405280156109ab5781602001602082028036833780820191505090505b50905060008590505b84811015610a0e578681815181106109cf576109ce6128c5565b5b60200260200101518287836109e49190612ac7565b815181106109f5576109f46128c5565b5b60200260200101818152505080806001019150506109b4565b5080826000018190525050610e0b565b60006001811115610a3257610a31611f77565b5b826001811115610a4557610a44611f77565b5b03610e0a57600084148015610a5a5750600083145b15610aba57600067ffffffffffffffff811115610a7a57610a79611350565b5b6040519080825280601f01601f191660200182016040528015610aac5781602001600182028036833780820191505090505b508160200181905250610e0c565b6000806000808973ffffffffffffffffffffffffffffffffffffffff1663ef4e06ec6040518163ffffffff1660e01b8152600401602060405180830381865afa158015610b0b573d6000803e3d6000fd5b505050506040513d601f19601f82011682018060405250810190610b2f9190612898565b905060005b8951811015610c1b5760008273ffffffffffffffffffffffffffffffffffffffff16632be681f58c8481518110610b6e57610b6d6128c5565b5b60200260200101516040518263ffffffff1660e01b8152600401610b929190612903565b602060405180830381865afa158015610baf573d6000803e3d6000fd5b505050506040513d601f19601f82011682018060405250810190610bd39190612afb565b9050898185610be29190612b28565b1115610bff57819550838a610bf79190612ac7565b945050610c1b565b8084610c0b9190612b28565b9350508080600101915050610b34565b5060008888610c2a9190612ac7565b905060008167ffffffffffffffff811115610c4857610c47611350565b5b6040519080825280601f01601f191660200182016040528015610c7a5781602001600182028036833780820191505090505b5090506000808790505b8c5181108015610c9357508382105b15610df85760008573ffffffffffffffffffffffffffffffffffffffff166380435b648f8481518110610cc957610cc86128c5565b5b60200260200101516040518263ffffffff1660e01b8152600401610ced9190612903565b600060405180830381865afa158015610d0a573d6000803e3d6000fd5b505050506040513d6000823e3d601f19601f82011682018060405250810190610d3391906129bf565b90506000898314610d45576000610d47565b885b905060008190505b825181108015610d5e57508685105b15610de257828181518110610d7657610d756128c5565b5b602001015160f81c60f81b868680610d8d90612a37565b975081518110610da057610d9f6128c5565b5b60200101907effffffffffffffffffffffffffffffffffffffffffffffffffffffffffffff1916908160001a9053508080610dda90612a37565b915050610d4f565b5050508080610df090612a37565b915050610c84565b50818860200181905250505050505050505b5b5b95945050505050565b6000806000806000905060005b8651811015610f47578773ffffffffffffffffffffffffffffffffffffffff1663ef4e06ec6040518163ffffffff1660e01b8152600401602060405180830381865afa158015610e76573d6000803e3d6000fd5b505050506040513d601f19601f82011682018060405250810190610e9a9190612898565b73ffffffffffffffffffffffffffffffffffffffff16632be681f5888381518110610ec857610ec76128c5565b5b60200260200101516040518263ffffffff1660e01b8152600401610eec9190612903565b602060405180830381865afa158015610f09573d6000803e3d6000fd5b505050506040513d601f19601f82011682018060405250810190610f2d9190612afb565b82610f389190612b28565b91508080600101915050610e22565b50600085600001511215610f9b57808560000151610f6490612a7f565b1115610f7b57600080600193509350935050611041565b8460000151610f8990612a7f565b81610f949190612ac7565b9350610fa3565b846000015193505b600085602001511361100a576000856020015103610fc357809250611005565b808560200151610fd290612a7f565b1115610fe957600080600193509350935050611041565b8460200151610ff790612a7f565b816110029190612ac7565b92505b611012565b846020015192505b8284118061101f57508083115b1561103557600080600193509350935050611041565b83836000935093509350505b93509350939050565b604051806080016040528061105d611134565b815260200161106a611152565b815260200161107761118d565b8152602001600080191681525090565b604051806040016040528061109a61104a565b8152602001606081525090565b60405180604001604052806110ba611134565b8152602001600061ffff1681525090565b60405180606001604052806110de61104a565b81526020016110eb611259565b8152602001606081525090565b604051806080016040528060608152602001606081526020016000600181111561112557611124611f77565b5b81526020016000151581525090565b604051806040016040528060608152602001600061ffff1681525090565b6040518060800160405280600061ffff168152602001611170611273565b815260200161117d6112aa565b8152602001600080191681525090565b60405180610100016040528060007dffffffffffffffffffffffffffffffffffffffffffffffffffffffffffff1916815260200160007dffffffffffffffffffffffffffffffffffffffffffffffffffffffffffff1916815260200160007dffffffffffffffffffffffffffffffffffffffffffffffffffffffffffff1916815260200160007dffffffffffffffffffffffffffffffffffffffffffffffffffffffffffff19168152602001600081526020016000815260200160008152602001600080191681525090565b604051806040016040528060008152602001600081525090565b6040518060a00160405280600081526020016000151581526020016000151581526020016000151581526020016000151581525090565b6040518060400160405280600061ffff168152602001606081525090565b6000604051905090565b600080fd5b600080fd5b600073ffffffffffffffffffffffffffffffffffffffff82169050919050565b6000611307826112dc565b9050919050565b611317816112fc565b811461132257600080fd5b50565b6000813590506113348161130e565b92915050565b600080fd5b6000601f19601f8301169050919050565b7f4e487b7100000000000000000000000000000000000000000000000000000000600052604160045260246000fd5b6113888261133f565b810181811067ffffffffffffffff821117156113a7576113a6611350565b5b80604052505050565b60006113ba6112c8565b90506113c6828261137f565b919050565b600080fd5b600080fd5b600080fd5b600067ffffffffffffffff8211156113f5576113f4611350565b5b6113fe8261133f565b9050602081019050919050565b82818337600083830152505050565b600061142d611428846113da565b6113b0565b905082815260208101848484011115611449576114486113d5565b5b61145484828561140b565b509392505050565b600082601f830112611471576114706113d0565b5b813561148184826020860161141a565b91505092915050565b6009811061149757600080fd5b50565b6000813590506114a98161148a565b92915050565b6000606082840312156114c5576114c461133a565b5b6114cf60606113b0565b9050600082013567ffffffffffffffff8111156114ef576114ee6113cb565b5b6114fb8482850161145c565b600083015250602082013567ffffffffffffffff81111561151f5761151e6113cb565b5b61152b8482850161145c565b602083015250604061153f8482850161149a565b60408301525092915050565b6000819050919050565b61155e8161154b565b811461156957600080fd5b50565b60008135905061157b81611555565b92915050565b6000819050919050565b61159481611581565b811461159f57600080fd5b50565b6000813590506115b18161158b565b92915050565b6000606082840312156115cd576115cc61133a565b5b6115d760606113b0565b9050600082013567ffffffffffffffff8111156115f7576115f66113cb565b5b611603848285016114af565b60008301525060206116178482850161156c565b602083015250604061162b848285016115a2565b60408301525092915050565b6000806040838503121561164e5761164d6112d2565b5b600061165c85828601611325565b925050602083013567ffffffffffffffff81111561167d5761167c6112d7565b5b611689858286016115b7565b9150509250929050565b600081519050919050565b600082825260208201905092915050565b60005b838110156116cd5780820151818401526020810190506116b2565b60008484015250505050565b60006116e482611693565b6116ee818561169e565b93506116fe8185602086016116af565b6117078161133f565b840191505092915050565b600061ffff82169050919050565b61172981611712565b82525050565b6000604083016000830151848203600086015261174c82826116d9565b91505060208301516117616020860182611720565b508091505092915050565b6117758161154b565b82525050565b60008115159050919050565b6117908161177b565b82525050565b60a0820160008201516117ac600085018261176c565b5060208201516117bf6020850182611787565b5060408201516117d26040850182611787565b5060608201516117e56060850182611787565b5060808201516117f86080850182611787565b50505050565b60006040830160008301516118166000860182611720565b506020830151848203602086015261182e82826116d9565b9150508091505092915050565b61184481611581565b82525050565b6000610100830160008301516118636000860182611720565b5060208301516118766020860182611796565b50604083015184820360c086015261188e82826117fe565b91505060608301516118a360e086018261183b565b508091505092915050565b60007fffff00000000000000000000000000000000000000000000000000000000000082169050919050565b6118e3816118ae565b82525050565b6101008201600082015161190060008501826118da565b50602082015161191360208501826118da565b50604082015161192660408501826118da565b50606082015161193960608501826118da565b50608082015161194c608085018261176c565b5060a082015161195f60a085018261176c565b5060c082015161197260c085018261176c565b5060e082015161198560e085018261183b565b50505050565b60006101608301600083015184820360008601526119a9828261172f565b915050602083015184820360208601526119c3828261184a565b91505060408301516119d860408601826118e9565b5060608301516119ec61014086018261183b565b508091505092915050565b60006020820190508181036000830152611a11818461198b565b905092915050565b6000819050919050565b611a2c81611a19565b8114611a3757600080fd5b50565b600081359050611a4981611a23565b92915050565b600060408284031215611a6557611a6461133a565b5b611a6f60406113b0565b90506000611a7f84828501611a3a565b6000830152506020611a9384828501611a3a565b60208301525092915050565b600060608284031215611ab557611ab461133a565b5b611abf60406113b0565b9050600082013567ffffffffffffffff811115611adf57611ade6113cb565b5b611aeb848285016115b7565b6000830152506020611aff84828501611a4f565b60208301525092915050565b60008060408385031215611b2257611b216112d2565b5b6000611b3085828601611325565b925050602083013567ffffffffffffffff811115611b5157611b506112d7565b5b611b5d85828601611a9f565b9150509250929050565b6000610160830160008301518482036000860152611b85828261172f565b91505060208301518482036020860152611b9f828261184a565b9150506040830151611bb460408601826118e9565b506060830151611bc861014086018261183b565b508091505092915050565b600081519050919050565b600082825260208201905092915050565b6000819050602082019050919050565b6000611c0b838361183b565b60208301905092915050565b6000602082019050919050565b6000611c2f82611bd3565b611c398185611bde565b9350611c4483611bef565b8060005b83811015611c75578151611c5c8882611bff565b9750611c6783611c17565b925050600181019050611c48565b5085935050505092915050565b60006040830160008301518482036000860152611c9f8282611b67565b91505060208301518482036020860152611cb98282611c24565b9150508091505092915050565b60006020820190508181036000830152611ce08184611c82565b905092915050565b60008060408385031215611cff57611cfe6112d2565b5b6000611d0d85828601611325565b925050602083013567ffffffffffffffff811115611d2e57611d2d6112d7565b5b611d3a858286016114af565b9150509250929050565b60006040830160008301518482036000860152611d61828261172f565b9150506020830151611d766020860182611720565b508091505092915050565b60006020820190508181036000830152611d9b8184611d44565b905092915050565b600060608284031215611db957611db861133a565b5b611dc360406113b0565b9050600082013567ffffffffffffffff811115611de357611de26113cb565b5b611def848285016115b7565b6000830152506020611e0384828501611a4f565b60208301525092915050565b60008060408385031215611e2657611e256112d2565b5b6000611e3485828601611325565b925050602083013567ffffffffffffffff811115611e5557611e546112d7565b5b611e6185828601611da3565b9150509250929050565b611e7481611a19565b82525050565b604082016000820151611e906000850182611e6b565b506020820151611ea36020850182611e6b565b50505050565b600081519050919050565b600082825260208201905092915050565b6000611ed082611ea9565b611eda8185611eb4565b9350611eea8185602086016116af565b611ef38161133f565b840191505092915050565b60006080830160008301518482036000860152611f1b8282611b67565b9150506020830151611f306020860182611e7a565b5060408301518482036060860152611f488282611ec5565b9150508091505092915050565b60006020820190508181036000830152611f6f8184611efe565b905092915050565b7f4e487b7100000000000000000000000000000000000000000000000000000000600052602160045260246000fd5b60098110611fb757611fb6611f77565b5b50565b6000819050611fc882611fa6565b919050565b6000611fd882611fba565b9050919050565b611fe881611fcd565b82525050565b6000606083016000830151848203600086015261200b82826116d9565b9150506020830151848203602086015261202582826116d9565b915050604083015161203a6040860182611fdf565b508091505092915050565b600060608301600083015184820360008601526120628282611fee565b9150506020830151612077602086018261176c565b50604083015161208a604086018261183b565b508091505092915050565b600060208201905081810360008301526120af8184612045565b905092915050565b60006120ca6120c5846113da565b6113b0565b9050828152602081018484840111156120e6576120e56113d5565b5b6120f18482856116af565b509392505050565b600082601f83011261210e5761210d6113d0565b5b815161211e8482602086016120b7565b91505092915050565b61213081611712565b811461213b57600080fd5b50565b60008151905061214d81612127565b92915050565b6000604082840312156121695761216861133a565b5b61217360406113b0565b9050600082015167ffffffffffffffff811115612193576121926113cb565b5b61219f848285016120f9565b60008301525060206121b38482850161213e565b60208301525092915050565b6000815190506121ce81611555565b92915050565b6121dd8161177b565b81146121e857600080fd5b50565b6000815190506121fa816121d4565b92915050565b600060a082840312156122165761221561133a565b5b61222060a06113b0565b90506000612230848285016121bf565b6000830152506020612244848285016121eb565b6020830152506040612258848285016121eb565b604083015250606061226c848285016121eb565b6060830152506080612280848285016121eb565b60808301525092915050565b6000604082840312156122a2576122a161133a565b5b6122ac60406113b0565b905060006122bc8482850161213e565b600083015250602082015167ffffffffffffffff8111156122e0576122df6113cb565b5b6122ec848285016120f9565b60208301525092915050565b6000815190506123078161158b565b92915050565b600061010082840312156123245761232361133a565b5b61232e60806113b0565b9050600061233e8482850161213e565b600083015250602061235284828501612200565b60208301525060c082015167ffffffffffffffff811115612376576123756113cb565b5b6123828482850161228c565b60408301525060e0612396848285016122f8565b60608301525092915050565b6123ab816118ae565b81146123b657600080fd5b50565b6000815190506123c8816123a2565b92915050565b600061010082840312156123e5576123e461133a565b5b6123f06101006113b0565b90506000612400848285016123b9565b6000830152506020612414848285016123b9565b6020830152506040612428848285016123b9565b604083015250606061243c848285016123b9565b6060830152506080612450848285016121bf565b60808301525060a0612464848285016121bf565b60a08301525060c0612478848285016121bf565b60c08301525060e061248c848285016122f8565b60e08301525092915050565b600061016082840312156124af576124ae61133a565b5b6124b960806113b0565b9050600082015167ffffffffffffffff8111156124d9576124d86113cb565b5b6124e584828501612153565b600083015250602082015167ffffffffffffffff811115612509576125086113cb565b5b6125158482850161230d565b6020830152506040612529848285016123ce565b60408301525061014061253e848285016122f8565b60608301525092915050565b6000602082840312156125605761255f6112d2565b5b600082015167ffffffffffffffff81111561257e5761257d6112d7565b5b61258a84828501612498565b91505092915050565b600067ffffffffffffffff8211156125ae576125ad611350565b5b602082029050602081019050919050565b600080fd5b60006125d76125d284612593565b6113b0565b905080838252602082019050602084028301858111156125fa576125f96125bf565b5b835b81811015612623578061260f88826122f8565b8452602084019350506020810190506125fc565b5050509392505050565b600082601f830112612642576126416113d0565b5b81516126528482602086016125c4565b91505092915050565b6000604082840312156126715761267061133a565b5b61267b60406113b0565b9050600082015167ffffffffffffffff81111561269b5761269a6113cb565b5b6126a784828501612498565b600083015250602082015167ffffffffffffffff8111156126cb576126ca6113cb565b5b6126d78482850161262d565b60208301525092915050565b6000602082840312156126f9576126f86112d2565b5b600082015167ffffffffffffffff811115612717576127166112d7565b5b6127238482850161265b565b91505092915050565b6000606083016000830151848203600086015261274982826116d9565b9150506020830151848203602086015261276382826116d9565b91505060408301516127786040860182611fdf565b508091505092915050565b6000602082019050818103600083015261279d818461272c565b905092915050565b6000604082840312156127bb576127ba61133a565b5b6127c560406113b0565b9050600082015167ffffffffffffffff8111156127e5576127e46113cb565b5b6127f184828501612153565b60008301525060206128058482850161213e565b60208301525092915050565b600060208284031215612827576128266112d2565b5b600082015167ffffffffffffffff811115612845576128446112d7565b5b612851848285016127a5565b91505092915050565b6000612865826112fc565b9050919050565b6128758161285a565b811461288057600080fd5b50565b6000815190506128928161286c565b92915050565b6000602082840312156128ae576128ad6112d2565b5b60006128bc84828501612883565b91505092915050565b7f4e487b7100000000000000000000000000000000000000000000000000000000600052603260045260246000fd5b6128fd81611581565b82525050565b600060208201905061291860008301846128f4565b92915050565b600067ffffffffffffffff82111561293957612938611350565b5b6129428261133f565b9050602081019050919050565b600061296261295d8461291e565b6113b0565b90508281526020810184848401111561297e5761297d6113d5565b5b6129898482856116af565b509392505050565b600082601f8301126129a6576129a56113d0565b5b81516129b684826020860161294f565b91505092915050565b6000602082840312156129d5576129d46112d2565b5b600082015167ffffffffffffffff8111156129f3576129f26112d7565b5b6129ff84828501612991565b91505092915050565b7f4e487b7100000000000000000000000000000000000000000000000000000000600052601160045260246000fd5b6000612a428261154b565b91507fffffffffffffffffffffffffffffffffffffffffffffffffffffffffffffffff8203612a7457612a73612a08565b5b600182019050919050565b6000612a8a82611a19565b91507f80000000000000000000000000000000000000000000000000000000000000008203612abc57612abb612a08565b5b816000039050919050565b6000612ad28261154b565b9150612add8361154b565b9250828203905081811115612af557612af4612a08565b5b92915050565b600060208284031215612b1157612b106112d2565b5b6000612b1f848285016121bf565b91505092915050565b6000612b338261154b565b9150612b3e8361154b565b9250828201905080821115612b5657612b55612a08565b5b9291505056fea2646970667358221220992038dcd2af4d3233d5ac80defe345a09d44710cad0cb05a6db523f1d4ef61664736f6c634300081c0033",
  "linkReferences": {},
  "deployedLinkReferences": {}
}